{
  "contractName": "PepitoDisguise",
  "abi": [
    {
      "inputs": [
        {
          "internalType": "address",
          "name": "_pepitoDisguiseOwner",
          "type": "address"
        },
        {
          "internalType": "uint256",
          "name": "_initialBalance",
          "type": "uint256"
        }
      ],
      "payable": false,
      "stateMutability": "nonpayable",
      "type": "constructor"
    },
    {
      "constant": true,
      "inputs": [],
      "name": "storedData",
      "outputs": [
        {
          "internalType": "string",
          "name": "",
          "type": "string"
        }
      ],
      "payable": false,
      "stateMutability": "view",
      "type": "function"
    },
    {
      "constant": false,
      "inputs": [
        {
          "internalType": "string",
          "name": "x",
          "type": "string"
        }
      ],
      "name": "setTop",
      "outputs": [],
      "payable": false,
      "stateMutability": "nonpayable",
      "type": "function"
    },
    {
      "constant": false,
      "inputs": [
        {
          "internalType": "string",
          "name": "x",
          "type": "string"
        }
      ],
      "name": "setClothe",
      "outputs": [],
      "payable": false,
      "stateMutability": "nonpayable",
      "type": "function"
    },
    {
      "constant": false,
      "inputs": [
        {
          "internalType": "string",
          "name": "x",
          "type": "string"
        }
      ],
      "name": "setAccessories",
      "outputs": [],
      "payable": false,
      "stateMutability": "nonpayable",
      "type": "function"
    },
    {
      "constant": false,
      "inputs": [
        {
          "internalType": "string",
          "name": "x",
          "type": "string"
        }
      ],
      "name": "setFacialHair",
      "outputs": [],
      "payable": false,
      "stateMutability": "nonpayable",
      "type": "function"
    },
    {
      "constant": false,
      "inputs": [
        {
          "internalType": "string",
          "name": "x",
          "type": "string"
        }
      ],
      "name": "setEyes",
      "outputs": [],
      "payable": false,
      "stateMutability": "nonpayable",
      "type": "function"
    },
    {
      "constant": false,
      "inputs": [
        {
          "internalType": "string",
          "name": "x",
          "type": "string"
        }
      ],
      "name": "setEyebrows",
      "outputs": [],
      "payable": false,
      "stateMutability": "nonpayable",
      "type": "function"
    },
    {
      "constant": false,
      "inputs": [
        {
          "internalType": "string",
          "name": "x",
          "type": "string"
        }
      ],
      "name": "setMouth",
      "outputs": [],
      "payable": false,
      "stateMutability": "nonpayable",
      "type": "function"
    },
    {
      "constant": false,
      "inputs": [
        {
          "internalType": "string",
          "name": "x",
          "type": "string"
        }
      ],
      "name": "setNose",
      "outputs": [],
      "payable": false,
      "stateMutability": "nonpayable",
      "type": "function"
    },
    {
      "constant": false,
      "inputs": [
        {
          "internalType": "string",
          "name": "x",
          "type": "string"
        }
      ],
      "name": "setSkin",
      "outputs": [],
      "payable": false,
      "stateMutability": "nonpayable",
      "type": "function"
    },
    {
      "constant": false,
      "inputs": [],
      "name": "createDisguise",
      "outputs": [],
      "payable": true,
      "stateMutability": "payable",
      "type": "function"
    },
    {
      "constant": false,
      "inputs": [],
      "name": "readDisguise",
      "outputs": [],
      "payable": false,
      "stateMutability": "nonpayable",
      "type": "function"
    },
    {
      "constant": false,
      "inputs": [],
      "name": "updateDisguise",
      "outputs": [],
      "payable": true,
      "stateMutability": "payable",
      "type": "function"
    }
  ],
  "bytecode": "0x608060405234801561001057600080fd5b50604051610ae1380380610ae18339818101604052604081101561003357600080fd5b81019080805190602001909291908051906020019092919050505081600160006101000a81548173ffffffffffffffffffffffffffffffffffffffff021916908373ffffffffffffffffffffffffffffffffffffffff160217905550806002819055505050610a3a806100a76000396000f3fe6080604052600436106100c25760003560e01c80635b5693501161007f5780639ddfc6f1116100595780639ddfc6f11461061b578063a7b23255146106e3578063ab05e114146106fa578063f770e6dd146107c2576100c2565b80635b56935014610481578063892385df1461054957806396b9d57214610611576100c2565b80631c275eb9146100c75780631d3e1c7b1461018f5780632a1afcd9146102575780632ca4bb7f146102e75780633438e220146103af5780634284d9a614610477575b600080fd5b3480156100d357600080fd5b5061018d600480360360208110156100ea57600080fd5b810190808035906020019064010000000081111561010757600080fd5b82018360208201111561011957600080fd5b8035906020019184600183028401116401000000008311171561013b57600080fd5b91908080601f016020809104026020016040519081016040528093929190818152602001838380828437600081840152601f19601f82011690508083019250505050505050919291929050505061088a565b005b34801561019b57600080fd5b50610255600480360360208110156101b257600080fd5b81019080803590602001906401000000008111156101cf57600080fd5b8201836020820111156101e157600080fd5b8035906020019184600183028401116401000000008311171561020357600080fd5b91908080601f016020809104026020016040519081016040528093929190818152602001838380828437600081840152601f19601f82011690508083019250505050505050919291929050505061088d565b005b34801561026357600080fd5b5061026c610890565b6040518080602001828103825283818151815260200191508051906020019080838360005b838110156102ac578082015181840152602081019050610291565b50505050905090810190601f1680156102d95780820380516001836020036101000a031916815260200191505b509250505060405180910390f35b3480156102f357600080fd5b506103ad6004803603602081101561030a57600080fd5b810190808035906020019064010000000081111561032757600080fd5b82018360208201111561033957600080fd5b8035906020019184600183028401116401000000008311171561035b57600080fd5b91908080601f016020809104026020016040519081016040528093929190818152602001838380828437600081840152601f19601f82011690508083019250505050505050919291929050505061092e565b005b3480156103bb57600080fd5b50610475600480360360208110156103d257600080fd5b81019080803590602001906401000000008111156103ef57600080fd5b82018360208201111561040157600080fd5b8035906020019184600183028401116401000000008311171561042357600080fd5b91908080601f016020809104026020016040519081016040528093929190818152602001838380828437600081840152601f19601f820116905080830192505050505050509192919290505050610931565b005b61047f610934565b005b34801561048d57600080fd5b50610547600480360360208110156104a457600080fd5b81019080803590602001906401000000008111156104c157600080fd5b8201836020820111156104d357600080fd5b803590602001918460018302840111640100000000831117156104f557600080fd5b91908080601f016020809104026020016040519081016040528093929190818152602001838380828437600081840152601f19601f820116905080830192505050505050509192919290505050610936565b005b34801561055557600080fd5b5061060f6004803603602081101561056c57600080fd5b810190808035906020019064010000000081111561058957600080fd5b82018360208201111561059b57600080fd5b803590602001918460018302840111640100000000831117156105bd57600080fd5b91908080601f016020809104026020016040519081016040528093929190818152602001838380828437600081840152601f19601f820116905080830192505050505050509192919290505050610939565b005b61061961093c565b005b34801561062757600080fd5b506106e16004803603602081101561063e57600080fd5b810190808035906020019064010000000081111561065b57600080fd5b82018360208201111561066d57600080fd5b8035906020019184600183028401116401000000008311171561068f57600080fd5b91908080601f016020809104026020016040519081016040528093929190818152602001838380828437600081840152601f19601f82011690508083019250505050505050919291929050505061093e565b005b3480156106ef57600080fd5b506106f8610958565b005b34801561070657600080fd5b506107c06004803603602081101561071d57600080fd5b810190808035906020019064010000000081111561073a57600080fd5b82018360208201111561074c57600080fd5b8035906020019184600183028401116401000000008311171561076e57600080fd5b91908080601f016020809104026020016040519081016040528093929190818152602001838380828437600081840152601f19601f82011690508083019250505050505050919291929050505061095a565b005b3480156107ce57600080fd5b50610888600480360360208110156107e557600080fd5b810190808035906020019064010000000081111561080257600080fd5b82018360208201111561081457600080fd5b8035906020019184600183028401116401000000008311171561083657600080fd5b91908080601f016020809104026020016040519081016040528093929190818152602001838380828437600081840152601f19601f82011690508083019250505050505050919291929050505061095d565b005b50565b50565b60008054600181600116156101000203166002900480601f0160208091040260200160405190810160405280929190818152602001828054600181600116156101000203166002900480156109265780601f106108fb57610100808354040283529160200191610926565b820191906000526020600020905b81548152906001019060200180831161090957829003601f168201915b505050505081565b50565b50565b565b50565b50565b565b8060009080519060200190610954929190610960565b5050565b565b50565b50565b828054600181600116156101000203166002900490600052602060002090601f016020900481019282601f106109a157805160ff19168380011785556109cf565b828001600101855582156109cf579182015b828111156109ce5782518255916020019190600101906109b3565b5b5090506109dc91906109e0565b5090565b610a0291905b808211156109fe5760008160009055506001016109e6565b5090565b9056fea265627a7a7231582071bc0a9c7ff78cb0f4ef77e615b925c85aca748f3f8faa8b5db6ee23f555c74364736f6c63430005100032",
  "source": "// SPDX-License-Identifier: MIT\n/*\n    Demo dApp for Machu Picchu. Also Final Project of Vu Tien Khang\n    Remix compiled successfully 2020-12-04\n*/\npragma solidity >=0.4.22 <0.8.0;\n\ncontract PepitoDisguise {\n    /*\n        A disguise is composed of many features\n        Copy this contract to generate also farmers, refugees, homeless etc.\n    */\n    // state variables\n    string public storedData;         // test data, to be replaced by a struct describing a dsguise\n    address pepitoDisguiseOwner;\n    uint initialBalance;\n    \n    constructor(address _pepitoDisguiseOwner, uint _initialBalance) public {\n        pepitoDisguiseOwner = _pepitoDisguiseOwner;\n        initialBalance = _initialBalance;\n    }\n    \n    // functions\n    function setTop(string memory x) public {   // test function, set one character feature in the struct\n        storedData = x;                     // replace by adequate\n    }\n    function setClothe(string memory x) public {}\n    function setAccessories(string memory x) public {}\n    function setFacialHair(string memory x) public {}\n    function setEyes(string memory x) public {}\n    function setEyebrows(string memory x) public {}\n    function setMouth(string memory x) public {}\n    function setNose(string memory x) public {}\n    function setSkin(string memory x) public {}\n\n    function createDisguise() public payable {\n        // to be filled\n    }\n\n    function readDisguise() public {\n        // to be filled\n    }\n\n    function updateDisguise() public payable {\n        // to be filled\n    }\n    \n}\n",
  "sourcePath": "/Users/kvutien/Dropbox/MachuPicchu/Machu-Picchu/Pepito/contracts/PepitoDisguise.sol",
  "compiler": {
    "name": "solc",
    "version": "0.5.16+commit.9c3226ce.Emscripten.clang"
  },
  "schemaVersion": "3.2.5",
  "updatedAt": "2020-12-05T20:01:15.677Z",
  "devdoc": {
    "methods": {}
  },
  "userdoc": {
    "methods": {}
  }
}