{
  "contractName": "PepitoDisguise",
  "abi": [
    {
      "inputs": [
        {
          "internalType": "address",
          "name": "_pepitoDisguiseOwner",
          "type": "address"
        }
      ],
      "payable": false,
      "stateMutability": "nonpayable",
      "type": "constructor"
    },
    {
      "constant": true,
      "inputs": [],
      "name": "storedDisguise",
      "outputs": [
        {
          "internalType": "enum PepitoDisguise.TopTypes",
          "name": "topType",
          "type": "uint8"
        },
        {
          "internalType": "enum PepitoDisguise.HatColors",
          "name": "hatColor",
          "type": "uint8"
        },
        {
          "internalType": "enum PepitoDisguise.AccessoriesTypes",
          "name": "accessoriesType",
          "type": "uint8"
        },
        {
          "internalType": "enum PepitoDisguise.HairColors",
          "name": "hairColor",
          "type": "uint8"
        },
        {
          "internalType": "enum PepitoDisguise.FacialHairTypes",
          "name": "facialHairType",
          "type": "uint8"
        },
        {
          "internalType": "enum PepitoDisguise.ClotheTypes",
          "name": "clotheType",
          "type": "uint8"
        },
        {
          "internalType": "enum PepitoDisguise.ClotheColors",
          "name": "clotheColor",
          "type": "uint8"
        },
        {
          "internalType": "enum PepitoDisguise.EyeTypes",
          "name": "eyeType",
          "type": "uint8"
        },
        {
          "internalType": "enum PepitoDisguise.EyebrowTypes",
          "name": "eyebrowType",
          "type": "uint8"
        },
        {
          "internalType": "enum PepitoDisguise.MouthTypes",
          "name": "mouthType",
          "type": "uint8"
        },
        {
          "internalType": "enum PepitoDisguise.SkinColors",
          "name": "skinColor",
          "type": "uint8"
        }
      ],
      "payable": false,
      "stateMutability": "view",
      "type": "function"
    },
    {
      "constant": false,
      "inputs": [
        {
          "internalType": "enum PepitoDisguise.TopTypes",
          "name": "x",
          "type": "uint8"
        }
      ],
      "name": "setTopType",
      "outputs": [],
      "payable": false,
      "stateMutability": "nonpayable",
      "type": "function"
    },
    {
      "constant": false,
      "inputs": [
        {
          "internalType": "enum PepitoDisguise.HatColors",
          "name": "x",
          "type": "uint8"
        }
      ],
      "name": "setHatColor",
      "outputs": [],
      "payable": false,
      "stateMutability": "nonpayable",
      "type": "function"
    },
    {
      "constant": false,
      "inputs": [
        {
          "internalType": "enum PepitoDisguise.AccessoriesTypes",
          "name": "x",
          "type": "uint8"
        }
      ],
      "name": "setAccessoriesType",
      "outputs": [],
      "payable": false,
      "stateMutability": "nonpayable",
      "type": "function"
    },
    {
      "constant": false,
      "inputs": [
        {
          "internalType": "enum PepitoDisguise.HairColors",
          "name": "x",
          "type": "uint8"
        }
      ],
      "name": "setHairColor",
      "outputs": [],
      "payable": false,
      "stateMutability": "nonpayable",
      "type": "function"
    },
    {
      "constant": false,
      "inputs": [
        {
          "internalType": "enum PepitoDisguise.FacialHairTypes",
          "name": "x",
          "type": "uint8"
        }
      ],
      "name": "setFacialHairType",
      "outputs": [],
      "payable": false,
      "stateMutability": "nonpayable",
      "type": "function"
    },
    {
      "constant": false,
      "inputs": [
        {
          "internalType": "enum PepitoDisguise.ClotheTypes",
          "name": "x",
          "type": "uint8"
        }
      ],
      "name": "setClotheType",
      "outputs": [],
      "payable": false,
      "stateMutability": "nonpayable",
      "type": "function"
    },
    {
      "constant": false,
      "inputs": [
        {
          "internalType": "enum PepitoDisguise.ClotheColors",
          "name": "x",
          "type": "uint8"
        }
      ],
      "name": "setClotheColor",
      "outputs": [],
      "payable": false,
      "stateMutability": "nonpayable",
      "type": "function"
    },
    {
      "constant": false,
      "inputs": [
        {
          "internalType": "enum PepitoDisguise.EyeTypes",
          "name": "x",
          "type": "uint8"
        }
      ],
      "name": "setEyeType",
      "outputs": [],
      "payable": false,
      "stateMutability": "nonpayable",
      "type": "function"
    },
    {
      "constant": false,
      "inputs": [
        {
          "internalType": "enum PepitoDisguise.EyebrowTypes",
          "name": "x",
          "type": "uint8"
        }
      ],
      "name": "setEyebrowType",
      "outputs": [],
      "payable": false,
      "stateMutability": "nonpayable",
      "type": "function"
    },
    {
      "constant": false,
      "inputs": [
        {
          "internalType": "enum PepitoDisguise.MouthTypes",
          "name": "x",
          "type": "uint8"
        }
      ],
      "name": "setMouthType",
      "outputs": [],
      "payable": false,
      "stateMutability": "nonpayable",
      "type": "function"
    },
    {
      "constant": false,
      "inputs": [
        {
          "internalType": "enum PepitoDisguise.SkinColors",
          "name": "x",
          "type": "uint8"
        }
      ],
      "name": "setSkinColor",
      "outputs": [],
      "payable": false,
      "stateMutability": "nonpayable",
      "type": "function"
    },
    {
      "constant": false,
      "inputs": [],
      "name": "storeDisguise",
      "outputs": [],
      "payable": true,
      "stateMutability": "payable",
      "type": "function"
    },
    {
      "constant": false,
      "inputs": [],
      "name": "readDisguise",
      "outputs": [],
      "payable": false,
      "stateMutability": "nonpayable",
      "type": "function"
    },
    {
      "constant": false,
      "inputs": [],
      "name": "updateDisguise",
      "outputs": [],
      "payable": true,
      "stateMutability": "payable",
      "type": "function"
    }
  ],
  "bytecode": "0x608060405234801561001057600080fd5b5060405161083e38038061083e8339818101604052602081101561003357600080fd5b8101908080519060200190929190505050806000806101000a81548173ffffffffffffffffffffffffffffffffffffffff021916908373ffffffffffffffffffffffffffffffffffffffff1602179055506000600181905550506107a28061009c6000396000f3fe6080604052600436106100e85760003560e01c80638fbc4b1a1161008a578063c34db49511610059578063c34db49514610308578063d2d1e0f314610346578063e9145c6c14610384578063ef82bad6146103c2576100e8565b80638fbc4b1a1461026b5780639478e68f146102a957806396b9d572146102e7578063a7b23255146102f1576100e8565b8063385f5dfe116100c6578063385f5dfe146101a757806338713767146101e557806344424a31146101ef578063825ad1c21461022d576100e8565b80631be8f09d146100ed5780631e1c3b6b1461012b57806328dfd55714610169575b600080fd5b3480156100f957600080fd5b506101296004803603602081101561011057600080fd5b81019080803560ff1690602001909291905050506104cd565b005b34801561013757600080fd5b506101676004803603602081101561014e57600080fd5b81019080803560ff1690602001909291905050506104f6565b005b34801561017557600080fd5b506101a56004803603602081101561018c57600080fd5b81019080803560ff16906020019092919050505061051f565b005b3480156101b357600080fd5b506101e3600480360360208110156101ca57600080fd5b81019080803560ff169060200190929190505050610548565b005b6101ed610571565b005b3480156101fb57600080fd5b5061022b6004803603602081101561021257600080fd5b81019080803560ff169060200190929190505050610573565b005b34801561023957600080fd5b506102696004803603602081101561025057600080fd5b81019080803560ff16906020019092919050505061059c565b005b34801561027757600080fd5b506102a76004803603602081101561028e57600080fd5b81019080803560ff1690602001909291905050506105c5565b005b3480156102b557600080fd5b506102e5600480360360208110156102cc57600080fd5b81019080803560ff1690602001909291905050506105ee565b005b6102ef610617565b005b3480156102fd57600080fd5b50610306610619565b005b34801561031457600080fd5b506103446004803603602081101561032b57600080fd5b81019080803560ff16906020019092919050505061061b565b005b34801561035257600080fd5b506103826004803603602081101561036957600080fd5b81019080803560ff169060200190929190505050610644565b005b34801561039057600080fd5b506103c0600480360360208110156103a757600080fd5b81019080803560ff16906020019092919050505061066d565b005b3480156103ce57600080fd5b506103d7610696565b604051808c60228111156103e757fe5b60ff1681526020018b600e8111156103fb57fe5b60ff1681526020018a600681111561040f57fe5b60ff16815260200189600981111561042357fe5b60ff16815260200188600581111561043757fe5b60ff16815260200187600881111561044b57fe5b60ff16815260200186600e81111561045f57fe5b60ff16815260200185600b81111561047357fe5b60ff16815260200184600c81111561048757fe5b60ff16815260200183600b81111561049b57fe5b60ff1681526020018260068111156104af57fe5b60ff1681526020019b50505050505050505050505060405180910390f35b80600260000160096101000a81548160ff0219169083600b8111156104ee57fe5b021790555050565b806002600001600a6101000a81548160ff0219169083600681111561051757fe5b021790555050565b80600260000160076101000a81548160ff0219169083600b81111561054057fe5b021790555050565b80600260000160046101000a81548160ff0219169083600581111561056957fe5b021790555050565b565b80600260000160036101000a81548160ff0219169083600981111561059457fe5b021790555050565b80600260000160006101000a81548160ff021916908360228111156105bd57fe5b021790555050565b80600260000160086101000a81548160ff0219169083600c8111156105e657fe5b021790555050565b80600260000160066101000a81548160ff0219169083600e81111561060f57fe5b021790555050565b565b565b80600260000160056101000a81548160ff0219169083600881111561063c57fe5b021790555050565b80600260000160016101000a81548160ff0219169083600e81111561066557fe5b021790555050565b80600260000160026101000a81548160ff0219169083600681111561068e57fe5b021790555050565b60028060000160009054906101000a900460ff16908060000160019054906101000a900460ff16908060000160029054906101000a900460ff16908060000160039054906101000a900460ff16908060000160049054906101000a900460ff16908060000160059054906101000a900460ff16908060000160069054906101000a900460ff16908060000160079054906101000a900460ff16908060000160089054906101000a900460ff16908060000160099054906101000a900460ff169080600001600a9054906101000a900460ff1690508b56fea265627a7a7231582081e8987b4e2f6b57d406d858fcc647636c0cec3152fbe00707523d830635a49364736f6c63430005100032",
  "source": "// SPDX-License-Identifier: MIT\n/*\n    Demo dApp for Machu Picchu. Also Final Project of Vu Tien Khang\n    Remix compiled successfully 2020-12-04\n*/\npragma solidity >=0.4.22 <0.8.0;\n\n/** Solidity NatSpec format\n    @title  PepitoDisguise. Demo dApp for Machu Picchu. Also Final Project of\n    @author Vu Tien Khang\n    @notice Pepito is a Caribbian corsair. He can create up to 512 PepitoDisguise\n    @notice A disguise is composed of many features\n    @notice Copy this contract to generate also farmers, refugees, homeless etc.\n    @dev    PepitoDisguise's function is similar to ENS Resolver.sol, Pepito to ENS Registry.sol\n\n    @dev    Remix-compiled successfully 2020-12-06\n*/\n\ncontract PepitoDisguise {\n    // state variables\n    address pepitoDisguiseOwner;/// @dev    the owner of the disguise is Pepito\n    uint balance;               /// @dev    running balance of pepitoTokens of this disguise\n    /// @dev    when transposed to person-in-need, balance will be a mapping of tokens from many helperInstitutions\n    enum TopTypes {Eyepatch, Hat, Hijab, LongHairBigHair, LongHairBob, LongHairBun, LongHairCurly, LongHairCurvy, LongHairDreads, LongHairFrida, LongHairFro, LongHairFroBand, LongHairMiaWallace, LongHairNotTooLong, LongHairShavedSides, LongHairStraight, LongHairStraight2, LongHairStraightStrand, NoHair, ShortHairDreads01, ShortHairDreads02, ShortHairFrizzle, /* ShortHairShaggy,*/ ShortHairShaggyMullet, ShortHairShortCurly, ShortHairShortFlat, ShortHairShortRound, ShortHairShortWaved, ShortHairSides, ShortHairTheCaesar, ShortHairTheCaesarSidePart, Turban, WinterHat1, WinterHat2, WinterHat3, WinterHat4}\n    enum HatColors {Black, Blue01, Blue02, Blue03, Gray01, Gray02, Heather, PastelBlue, PastelGreen, PastelOrange, PastelRed, PastelYellow, Pink, Red, White}\n    enum AccessoriesTypes {Blank, Kurt, Prescription01, Prescription02, Round, Sunglasses, Wayfarers}\n    enum HairColors {Auburn, Black, Blonde, BlondeGolden, Brown, BrownDark, PastelPink, Platinum, Red, SilverGray}\n    enum FacialHairTypes {BeardLight, BeardMagestic, BeardMedium, Blank, MoustacheFancy, MoustacheMagnum}\n    enum ClotheTypes {BlazerShirt, BlazerSweater, CollarSweater, GraphicShirt, /*Graphics,*/ Hoodie, Overall, ShirtCrewNeck, ShirtScoopNeck, ShirtVNeck}\n    enum ClotheColors {Black, Blue01, Blue02, Blue03, Gray01, Gray02, Heather, PastelBlue, PastelGreen, PastelOrange, PastelRed, PastelYellow, Pink, Red, White}\n    enum EyeTypes {Close, Cry, Default, Dizzy, EyeRoll, Happy, Hearts, Side, Squint, Surprised, Wink, WinkWacky}\n    enum EyebrowTypes {Angry, AngryNatural, Default, DefaultNatural, FlatNatural, FrownNatural, RaisedExcited, RaisedExcitedNatural, SadConcerned, SadConcernedNatural, UnibrowNatural, UpDown, UpDownNatural}\n    enum MouthTypes {Concerned, Default, Disbelief,Eating, Grimace, Sad, ScreamOpen, Serious, Smile, Tongue, Twinkle, Vomit}\n    enum SkinColors{ Tanned, Yellow, Pale, Light, Brown, DarkBrown, Black}\n    struct Disguise {\n        TopTypes topType;       // 'Eyepatch', 'Hat', 'Hijab', 'LongHairBigHair' etc.\n        HatColors hatColor;     // 'Black', 'Blue01', 'Blue02' etc.\n        AccessoriesTypes accessoriesType; // 'Round', 'Sunglasses', 'Wayfarers' etc.\n        HairColors hairColor;   // 'PastelYellow', 'Pink', 'Red', 'White' etc.\n        FacialHairTypes facialHairType;   // 'BeardMedium', 'Blank', 'MoustacheFancy', 'MoustacheMagnum' etc.\n        ClotheTypes clotheType; // 'BlazerSweater', 'CollarSweater', 'GraphicShirt' etc.\n        ClotheColors clotheColor; // 'PastelRed', 'PastelYellow', 'Pink', 'Red', 'White' etc.\n        EyeTypes eyeType;       // 'Close', 'Cry', 'Default', 'Dizzy', 'EyeRoll' etc.\n        EyebrowTypes eyebrowType; // 'Angry', 'AngryNatural', 'Default','RaisedExcited' etc.\n        MouthTypes mouthType;   // 'Concerned', 'Default', 'Disbelief','Eating' etc.\n        SkinColors skinColor;   // 'Tanned', 'Yellow', 'Pale', 'Light', 'Brown' etc.\n    }\n    Disguise public storedDisguise;\n    \n    constructor(address _pepitoDisguiseOwner/*, uint _initialBalance*/) public {\n        pepitoDisguiseOwner = _pepitoDisguiseOwner;\n        //balance = _initialBalance;\n        balance = 0;\n    }\n    \n    /// @dev    functions to set elements of the struct storedData with data of the disguise\n    function setTopType(TopTypes x) public {    /// @dev    test function, set one character feature in the struct\n        storedDisguise.topType = x;             /// @dev    to be replaced by adequate when finalised\n    }\n    function setHatColor(HatColors x) public { storedDisguise.hatColor = x; }\n    function setAccessoriesType(AccessoriesTypes x) public { storedDisguise.accessoriesType = x; }\n    function setHairColor(HairColors x) public { storedDisguise.hairColor = x; }\n    function setFacialHairType(FacialHairTypes x) public {storedDisguise.facialHairType = x; }\n    function setClotheType(ClotheTypes x) public {storedDisguise.clotheType = x; }\n    function setClotheColor(ClotheColors x) public {storedDisguise.clotheColor = x; }\n    function setEyeType(EyeTypes x) public {storedDisguise.eyeType = x; }\n    function setEyebrowType(EyebrowTypes x) public {storedDisguise.eyebrowType = x; }\n    function setMouthType(MouthTypes x) public {storedDisguise.mouthType = x; }\n    function setSkinColor(SkinColors x) public {storedDisguise.skinColor = x; }\n\n    function storeDisguise() public payable {\n        /// @dev    write the struct storedData in blockchain first, IPFS database in future\n        /// @dev    to be filled\n    }\n\n    function readDisguise() public {\n        /// @dev    retrieves the struct storedData from IPFS database\n        /// @dev    to be filled\n    }\n\n    function updateDisguise() public payable {\n        /// @dev    read, update, write back the struct storedData in IPFS database\n        /// @dev    to be filled\n    }\n    \n}\n",
  "sourcePath": "/Users/kvutien/Dropbox/MachuPicchu/Machu-Picchu/Pepito/contracts/PepitoDisguise.sol",
  "compiler": {
    "name": "solc",
    "version": "0.5.16+commit.9c3226ce.Emscripten.clang"
  },
  "schemaVersion": "3.2.5",
  "updatedAt": "2020-12-24T20:53:56.631Z",
  "networkType": "ethereum",
  "devdoc": {
    "author": "Vu Tien Khang",
    "details": "PepitoDisguise's function is similar to ENS Resolver.sol, Pepito to ENS Registry.solRemix-compiled successfully 2020-12-06",
    "methods": {
      "setTopType(uint8)": {
        "details": "functions to set elements of the struct storedData with data of the disguise"
      }
    },
    "title": "PepitoDisguise. Demo dApp for Machu Picchu. Also Final Project of"
  },
  "userdoc": {
    "methods": {},
    "notice": "Solidity NatSpec formatPepito is a Caribbian corsair. He can create up to 512 PepitoDisguiseA disguise is composed of many featuresCopy this contract to generate also farmers, refugees, homeless etc."
  }
}