{
  "contractName": "Pepito",
  "abi": [
    {
      "inputs": [],
      "payable": false,
      "stateMutability": "nonpayable",
      "type": "constructor"
    },
    {
      "anonymous": false,
      "inputs": [
        {
          "indexed": false,
          "internalType": "address",
          "name": "aDisguise",
          "type": "address"
        }
      ],
      "name": "PepitoDisguiseCreated",
      "type": "event"
    },
    {
      "constant": true,
      "inputs": [],
      "name": "disguiseNumber",
      "outputs": [
        {
          "internalType": "uint256",
          "name": "",
          "type": "uint256"
        }
      ],
      "payable": false,
      "stateMutability": "view",
      "type": "function"
    },
    {
      "constant": true,
      "inputs": [],
      "name": "initialBalance",
      "outputs": [
        {
          "internalType": "uint256",
          "name": "",
          "type": "uint256"
        }
      ],
      "payable": false,
      "stateMutability": "view",
      "type": "function"
    },
    {
      "constant": true,
      "inputs": [],
      "name": "owner",
      "outputs": [
        {
          "internalType": "address",
          "name": "",
          "type": "address"
        }
      ],
      "payable": false,
      "stateMutability": "view",
      "type": "function"
    },
    {
      "constant": true,
      "inputs": [
        {
          "internalType": "uint256",
          "name": "",
          "type": "uint256"
        }
      ],
      "name": "pepitoDisguises",
      "outputs": [
        {
          "internalType": "address",
          "name": "",
          "type": "address"
        }
      ],
      "payable": false,
      "stateMutability": "view",
      "type": "function"
    },
    {
      "constant": true,
      "inputs": [],
      "name": "stopped",
      "outputs": [
        {
          "internalType": "bool",
          "name": "",
          "type": "bool"
        }
      ],
      "payable": false,
      "stateMutability": "view",
      "type": "function"
    },
    {
      "constant": false,
      "inputs": [],
      "name": "toggleContractActive",
      "outputs": [],
      "payable": false,
      "stateMutability": "nonpayable",
      "type": "function"
    },
    {
      "constant": false,
      "inputs": [],
      "name": "registerDisguise",
      "outputs": [],
      "payable": true,
      "stateMutability": "payable",
      "type": "function"
    },
    {
      "constant": false,
      "inputs": [],
      "name": "withdraw",
      "outputs": [],
      "payable": true,
      "stateMutability": "payable",
      "type": "function"
    },
    {
      "constant": false,
      "inputs": [],
      "name": "createPepitoDisguise",
      "outputs": [],
      "payable": false,
      "stateMutability": "nonpayable",
      "type": "function"
    },
    {
      "constant": true,
      "inputs": [
        {
          "internalType": "uint256",
          "name": "i",
          "type": "uint256"
        }
      ],
      "name": "getPepitoDisguise",
      "outputs": [
        {
          "internalType": "address",
          "name": "",
          "type": "address"
        }
      ],
      "payable": false,
      "stateMutability": "view",
      "type": "function"
    }
  ],
  "bytecode": "0x608060405234801561001057600080fd5b5060008060006101000a81548160ff02191690831515021790555033600060016101000a81548173ffffffffffffffffffffffffffffffffffffffff021916908373ffffffffffffffffffffffffffffffffffffffff160217905550600a600181905550600060028190555061102f8061008b6000396000f3fe6080604052600436106100915760003560e01c80638da5cb5b116100595780638da5cb5b1461018c5780639a19faec146101e3578063aff17706146101ed578063b5ac3faa14610218578063dff0ffa81461022f57610091565b80631385d24c1461009657806318369a2a146100ad5780633ccfd60b146100d857806375f12b21146100e2578063797ffef514610111575b600080fd5b3480156100a257600080fd5b506100ab6102aa565b005b3480156100b957600080fd5b506100c261032e565b6040518082815260200191505060405180910390f35b6100e0610334565b005b3480156100ee57600080fd5b506100f7610343565b604051808215151515815260200191505060405180910390f35b34801561011d57600080fd5b5061014a6004803603602081101561013457600080fd5b8101908080359060200190929190505050610355565b604051808273ffffffffffffffffffffffffffffffffffffffff1673ffffffffffffffffffffffffffffffffffffffff16815260200191505060405180910390f35b34801561019857600080fd5b506101a16103e8565b604051808273ffffffffffffffffffffffffffffffffffffffff1673ffffffffffffffffffffffffffffffffffffffff16815260200191505060405180910390f35b6101eb61040e565b005b3480156101f957600080fd5b5061020261042c565b6040518082815260200191505060405180910390f35b34801561022457600080fd5b5061022d610432565b005b34801561023b57600080fd5b506102686004803603602081101561025257600080fd5b81019080803590602001909291905050506106dc565b604051808273ffffffffffffffffffffffffffffffffffffffff1673ffffffffffffffffffffffffffffffffffffffff16815260200191505060405180910390f35b3373ffffffffffffffffffffffffffffffffffffffff16600060019054906101000a900473ffffffffffffffffffffffffffffffffffffffff1673ffffffffffffffffffffffffffffffffffffffff161461030457600080fd5b6000809054906101000a900460ff16156000806101000a81548160ff021916908315150217905550565b60015481565b6000809054906101000a905050565b6000809054906101000a900460ff1681565b600061020082106103b1576040517f08c379a0000000000000000000000000000000000000000000000000000000008152600401808060200182810382526024815260200180610fd76024913960400191505060405180910390fd5b60038261020081106103bf57fe5b0160009054906101000a900473ffffffffffffffffffffffffffffffffffffffff169050919050565b600060019054906101000a900473ffffffffffffffffffffffffffffffffffffffff1681565b6000809054906101000a900460ff1661042a57610429610432565b5b565b60025481565b3373ffffffffffffffffffffffffffffffffffffffff16600060019054906101000a900473ffffffffffffffffffffffffffffffffffffffff1673ffffffffffffffffffffffffffffffffffffffff16146104d8576040517f08c379a0000000000000000000000000000000000000000000000000000000008152600401808060200182810382526025815260200180610fb26025913960400191505060405180910390fd5b60006001541415610534576040517f08c379a000000000000000000000000000000000000000000000000000000000815260040180806020018281038252602a815260200180610f5c602a913960400191505060405180910390fd5b61020060025410610590576040517f08c379a000000000000000000000000000000000000000000000000000000000815260040180806020018281038252602c815260200180610f86602c913960400191505060405180910390fd5b60008060019054906101000a900473ffffffffffffffffffffffffffffffffffffffff166040516105c090610710565b808273ffffffffffffffffffffffffffffffffffffffff1673ffffffffffffffffffffffffffffffffffffffff168152602001915050604051809103906000f080158015610612573d6000803e3d6000fd5b509050806003600254610200811061062657fe5b0160006101000a81548173ffffffffffffffffffffffffffffffffffffffff021916908373ffffffffffffffffffffffffffffffffffffffff16021790555060016002600082825401925050819055507f923adbc87f0779ec430116d167509b913d1e920d6d5ac8da78dd8bb8dc09828081604051808273ffffffffffffffffffffffffffffffffffffffff1673ffffffffffffffffffffffffffffffffffffffff16815260200191505060405180910390a150565b60038161020081106106ea57fe5b016000915054906101000a900473ffffffffffffffffffffffffffffffffffffffff1681565b61083e8061071e8339019056fe608060405234801561001057600080fd5b5060405161083e38038061083e8339818101604052602081101561003357600080fd5b8101908080519060200190929190505050806000806101000a81548173ffffffffffffffffffffffffffffffffffffffff021916908373ffffffffffffffffffffffffffffffffffffffff1602179055506000600181905550506107a28061009c6000396000f3fe6080604052600436106100e85760003560e01c80638fbc4b1a1161008a578063c34db49511610059578063c34db49514610308578063d2d1e0f314610346578063e9145c6c14610384578063ef82bad6146103c2576100e8565b80638fbc4b1a1461026b5780639478e68f146102a957806396b9d572146102e7578063a7b23255146102f1576100e8565b8063385f5dfe116100c6578063385f5dfe146101a757806338713767146101e557806344424a31146101ef578063825ad1c21461022d576100e8565b80631be8f09d146100ed5780631e1c3b6b1461012b57806328dfd55714610169575b600080fd5b3480156100f957600080fd5b506101296004803603602081101561011057600080fd5b81019080803560ff1690602001909291905050506104cd565b005b34801561013757600080fd5b506101676004803603602081101561014e57600080fd5b81019080803560ff1690602001909291905050506104f6565b005b34801561017557600080fd5b506101a56004803603602081101561018c57600080fd5b81019080803560ff16906020019092919050505061051f565b005b3480156101b357600080fd5b506101e3600480360360208110156101ca57600080fd5b81019080803560ff169060200190929190505050610548565b005b6101ed610571565b005b3480156101fb57600080fd5b5061022b6004803603602081101561021257600080fd5b81019080803560ff169060200190929190505050610573565b005b34801561023957600080fd5b506102696004803603602081101561025057600080fd5b81019080803560ff16906020019092919050505061059c565b005b34801561027757600080fd5b506102a76004803603602081101561028e57600080fd5b81019080803560ff1690602001909291905050506105c5565b005b3480156102b557600080fd5b506102e5600480360360208110156102cc57600080fd5b81019080803560ff1690602001909291905050506105ee565b005b6102ef610617565b005b3480156102fd57600080fd5b50610306610619565b005b34801561031457600080fd5b506103446004803603602081101561032b57600080fd5b81019080803560ff16906020019092919050505061061b565b005b34801561035257600080fd5b506103826004803603602081101561036957600080fd5b81019080803560ff169060200190929190505050610644565b005b34801561039057600080fd5b506103c0600480360360208110156103a757600080fd5b81019080803560ff16906020019092919050505061066d565b005b3480156103ce57600080fd5b506103d7610696565b604051808c60238111156103e757fe5b60ff1681526020018b600e8111156103fb57fe5b60ff1681526020018a600681111561040f57fe5b60ff16815260200189600981111561042357fe5b60ff16815260200188600581111561043757fe5b60ff16815260200187600981111561044b57fe5b60ff16815260200186600e81111561045f57fe5b60ff16815260200185600b81111561047357fe5b60ff16815260200184600c81111561048757fe5b60ff16815260200183600b81111561049b57fe5b60ff1681526020018260068111156104af57fe5b60ff1681526020019b50505050505050505050505060405180910390f35b80600260000160096101000a81548160ff0219169083600b8111156104ee57fe5b021790555050565b806002600001600a6101000a81548160ff0219169083600681111561051757fe5b021790555050565b80600260000160076101000a81548160ff0219169083600b81111561054057fe5b021790555050565b80600260000160046101000a81548160ff0219169083600581111561056957fe5b021790555050565b565b80600260000160036101000a81548160ff0219169083600981111561059457fe5b021790555050565b80600260000160006101000a81548160ff021916908360238111156105bd57fe5b021790555050565b80600260000160086101000a81548160ff0219169083600c8111156105e657fe5b021790555050565b80600260000160066101000a81548160ff0219169083600e81111561060f57fe5b021790555050565b565b565b80600260000160056101000a81548160ff0219169083600981111561063c57fe5b021790555050565b80600260000160016101000a81548160ff0219169083600e81111561066557fe5b021790555050565b80600260000160026101000a81548160ff0219169083600681111561068e57fe5b021790555050565b60028060000160009054906101000a900460ff16908060000160019054906101000a900460ff16908060000160029054906101000a900460ff16908060000160039054906101000a900460ff16908060000160049054906101000a900460ff16908060000160059054906101000a900460ff16908060000160069054906101000a900460ff16908060000160079054906101000a900460ff16908060000160089054906101000a900460ff16908060000160099054906101000a900460ff169080600001600a9054906101000a900460ff1690508b56fea265627a7a72315820dd7634f7193c95fd9520be1a1b29fd346188e64d705dc204c6e775c44733c28364736f6c63430005100032696e697469616c2062616c616e6365206f662064697367756973652063616e6e6f74206265207a65726f746865726520686173206265656e20616c726561647920353132206469736775697365732063726561746564746865207472616e73616374696f6e2063616c6c6572206d7573742062652050657069746f63616e6e6f74206578697374206d6f7265207468616e2035313220646973677569736573a265627a7a72315820c6b501c05940e37bdb9fba5efd6203b015e85dc73dde058f30d5ea5c684a562f64736f6c63430005100032",
  "source": "// SPDX-License-Identifier: MIT\npragma solidity >=0.4.22 <0.8.0;\n/*  Order of contract elements\n    1.\t    Pragma statements\n    2.\t    Import statements\n    3.\t    Interfaces\n    4.\t    Libraries\n    5.\t    Contracts\n*/\n\n/**\n    @title  Pepito. Demo dApp for Machu Picchu. Also Final Project of\n    @author Vu Tien Khang\n    @notice Pepito is a Caribbian corsair. He can create up to 512 PepitoDisguise\n    @notice Pepito's function is similar to ENS Registry.sol, PepitoDisguise is similar to ENS Resolver.sol\n    @dev    Pepito's Circuit Breaker stops creating disguises if Hernadez de La Banane discovers the trick :-)\n    @dev    The circuit breaker is called to halt everything in case of serious unsolved contract exploit\n    @dev    contract Pepito is a factory of disguises.\n    @dev    - the main interest of a factory is to maintain an array or mapping of addresses of child contracts\n    @dev    - specially useful for persons-in-need because their contract will be their virtual secretary\n    @dev        and will maintain their balance of tokens \n    @dev        and will execute the few orders sent via SMS by the persons-in-need\n    @dev Pepito contract only manages the array of addresses of disguise samrt contract\n\n    @dev    Remix-compiled successfully 2020-12-06\n*/\n\nimport \"./PepitoDisguise.sol\";\n\ncontract Pepito {\n/* order of statements inside de contract\n    1.\t    State variables\n    2.\t    Struct, Arrays or Enums\n    3.\t    Events\n    4.\t    Function Modifiers\n    5.\t    Constructor\n    6.\t    Fallback — Receive function\n    7.\t    External visible functions\n    8.\t    Public visible functions\n    9.\t    Internal visible functions\n    10.\t    Private visible functions\n\norder of function modifiers\n    1.\t    Visibility\n    2.\t    Mutability\n    3.\t    Virtual\n    4.\t    Override\n    5.\t    Custom modifiers\n*/\n\n    bool public stopped;            /// @dev    the circuit breaker\n    address public owner;           /// @dev    account that deployed Pepito\n    uint256 public initialBalance;  /// @dev    initial balance of all disguises\n    uint256 public disguiseNumber;  /// @dev    running number of disguises in array pepitoDisguiseAddresses\n    address[512] public pepitoDisguises;    /// @dev    array of contracts pepitoDisguise\n    /// @dev    array is used because disguises will be iterated and displayed\n    /// @dev    mapping may be used when disguises are transposed into people-in-need that won't be iterated\n    /// @dev    for the demo, we limit array size to 512; in real, disguises will be in IPFS database w/o number limit\n\n    event PepitoDisguiseCreated(address aDisguise);\n    \n    modifier isAdmin() {\n        require(owner == msg.sender);   /// @dev    the caller of the function must be Pepito\n        _;\n    }\n    modifier stopInEmergency() {    /// @dev    the caller of the breaker must be Pepito\n        if(!stopped) _;\n    }\n    modifier onlyInEmergency() {    /// @dev    the caller of the breaker must be Pepito\n        if(stopped) _;\n    }\n\n    constructor() public {\n        stopped = false;\n        owner = msg.sender;     /// @dev    the owner is the EOA that deployed Pepito\n        initialBalance = 10;    /// @dev    initial balance is 10 Pepito tokens\n        disguiseNumber = 0;     /// @dev    initial number of disguises created\n    }\n    \n    function toggleContractActive() public isAdmin {\n        /// @dev    Circuit breaker to stop the smart contract in desperate cases & restart it\n        /// @dev    In the future we can add an additional modifier that restricts stopping a contract to be\n        /// @dev    based on another action, such as a vote of users\n        stopped = !stopped;\n    }\n    \n    function registerDisguise() public payable stopInEmergency {\n        /// @dev    create a disguise and (future) record it in IPFS\n        /// @dev    stop all creation of new disguise if circuit breaker activated\n        createPepitoDisguise();\n    }\n    \n    function withdraw () onlyInEmergency public payable {\n        /// @dev    withdraw balances of all tokens when situation is desperate\n        /// @dev    change 'public' to 'external' to reduce gas if never called inside this contract\n        /// @dev    add some code to withdraw all tokens from all disguises if circuit breaker activated\n        /// @dev    and contract is hopelessly FOOBAR\n   }\n    \n    function createPepitoDisguise() public {\n        /// @dev    deploy an instance of PepitoDisguise with properties transferred from caller\n        require (owner == msg.sender, \"the transaction caller must be Pepito\");\n        require (initialBalance != uint256(0), \"initial balance of disguise cannot be zero\");\n        require (disguiseNumber < 512, \"there has been already 512 disguises created\");\n\n        PepitoDisguise pepitoDisguise = new PepitoDisguise(owner/*, initialBalance*/);\n        /// @dev    disguise is a future virtual secretary of persons-in-need, so its contract address is useful\n        /// @dev    the disguise is instantiated here, will be filled by functions in pepitoDisguise()\n        pepitoDisguises[disguiseNumber] = address(pepitoDisguise);   // record disguise smart contract\n        disguiseNumber += 1;\n        emit PepitoDisguiseCreated(address(pepitoDisguise));\n    }\n    \n    function getPepitoDisguise(uint i) external view returns(address) {\n        /// @dev    this function will be called from a JavaScript loop\n        /// @dev    i is loop index, rank in the array of disguises\n        /// @return one instance of pepitoDisguiseAddress, function to retrieve its data is exposed in pepitoDisguide\n        require (i < 512, \"cannot exist more than 512 disguises\");\n        return pepitoDisguises[i];\n    }\n}\n",
  "sourcePath": "/Users/kvutien/Dropbox/MachuPicchu/Machu-Picchu/Pepito/contracts/Pepito.sol",
  "compiler": {
    "name": "solc",
    "version": "0.5.16+commit.9c3226ce.Emscripten.clang"
  },
  "schemaVersion": "3.2.5",
  "updatedAt": "2020-12-23T13:43:30.566Z",
  "networkType": "ethereum",
  "devdoc": {
    "methods": {}
  },
  "userdoc": {
    "methods": {}
  }
}