{
  "contractName": "Pepito",
  "abi": [
    {
      "inputs": [],
      "payable": false,
      "stateMutability": "nonpayable",
      "type": "constructor"
    },
    {
      "anonymous": false,
      "inputs": [
        {
          "indexed": false,
          "internalType": "address",
          "name": "pepitoDisguise",
          "type": "address"
        }
      ],
      "name": "PepitoDisguiseCreated",
      "type": "event"
    },
    {
      "constant": true,
      "inputs": [],
      "name": "initialBalance",
      "outputs": [
        {
          "internalType": "uint256",
          "name": "",
          "type": "uint256"
        }
      ],
      "payable": false,
      "stateMutability": "view",
      "type": "function"
    },
    {
      "constant": true,
      "inputs": [],
      "name": "owner",
      "outputs": [
        {
          "internalType": "address",
          "name": "",
          "type": "address"
        }
      ],
      "payable": false,
      "stateMutability": "view",
      "type": "function"
    },
    {
      "constant": true,
      "inputs": [
        {
          "internalType": "uint256",
          "name": "",
          "type": "uint256"
        }
      ],
      "name": "pepitoDisguiseAddresses",
      "outputs": [
        {
          "internalType": "address",
          "name": "",
          "type": "address"
        }
      ],
      "payable": false,
      "stateMutability": "view",
      "type": "function"
    },
    {
      "constant": true,
      "inputs": [],
      "name": "stopped",
      "outputs": [
        {
          "internalType": "bool",
          "name": "",
          "type": "bool"
        }
      ],
      "payable": false,
      "stateMutability": "view",
      "type": "function"
    },
    {
      "constant": false,
      "inputs": [],
      "name": "toggleContractActive",
      "outputs": [],
      "payable": false,
      "stateMutability": "nonpayable",
      "type": "function"
    },
    {
      "constant": false,
      "inputs": [],
      "name": "registerDisguise",
      "outputs": [],
      "payable": true,
      "stateMutability": "payable",
      "type": "function"
    },
    {
      "constant": false,
      "inputs": [],
      "name": "withdraw",
      "outputs": [],
      "payable": true,
      "stateMutability": "payable",
      "type": "function"
    },
    {
      "constant": false,
      "inputs": [],
      "name": "createPepitoDisguise",
      "outputs": [],
      "payable": false,
      "stateMutability": "nonpayable",
      "type": "function"
    },
    {
      "constant": true,
      "inputs": [],
      "name": "getPepitoDisguises",
      "outputs": [
        {
          "internalType": "address[]",
          "name": "",
          "type": "address[]"
        }
      ],
      "payable": false,
      "stateMutability": "view",
      "type": "function"
    }
  ],
  "bytecode": "0x608060405234801561001057600080fd5b5060008060006101000a81548160ff02191690831515021790555033600060016101000a81548173ffffffffffffffffffffffffffffffffffffffff021916908373ffffffffffffffffffffffffffffffffffffffff160217905550600a600181905550611106806100836000396000f3fe6080604052600436106100865760003560e01c806375f12b211161005957806375f12b21146101525780638da5cb5b146101815780639a19faec146101d8578063a882b2d3146101e2578063b5ac3faa1461024e57610086565b806304b9b2611461008b5780631385d24c1461010657806318369a2a1461011d5780633ccfd60b14610148575b600080fd5b34801561009757600080fd5b506100c4600480360360208110156100ae57600080fd5b8101908080359060200190929190505050610265565b604051808273ffffffffffffffffffffffffffffffffffffffff1673ffffffffffffffffffffffffffffffffffffffff16815260200191505060405180910390f35b34801561011257600080fd5b5061011b6102a1565b005b34801561012957600080fd5b50610132610325565b6040518082815260200191505060405180910390f35b61015061032b565b005b34801561015e57600080fd5b5061016761033a565b604051808215151515815260200191505060405180910390f35b34801561018d57600080fd5b5061019661034c565b604051808273ffffffffffffffffffffffffffffffffffffffff1673ffffffffffffffffffffffffffffffffffffffff16815260200191505060405180910390f35b6101e0610372565b005b3480156101ee57600080fd5b506101f7610390565b6040518080602001828103825283818151815260200191508051906020019060200280838360005b8381101561023a57808201518184015260208101905061021f565b505050509050019250505060405180910390f35b34801561025a57600080fd5b5061026361041e565b005b6002818154811061027257fe5b906000526020600020016000915054906101000a900473ffffffffffffffffffffffffffffffffffffffff1681565b3373ffffffffffffffffffffffffffffffffffffffff16600060019054906101000a900473ffffffffffffffffffffffffffffffffffffffff1673ffffffffffffffffffffffffffffffffffffffff16146102fb57600080fd5b6000809054906101000a900460ff16156000806101000a81548160ff021916908315150217905550565b60015481565b6000809054906101000a905050565b6000809054906101000a900460ff1681565b600060019054906101000a900473ffffffffffffffffffffffffffffffffffffffff1681565b6000809054906101000a900460ff1661038e5761038d61041e565b5b565b6060600280548060200260200160405190810160405280929190818152602001828054801561041457602002820191906000526020600020905b8160009054906101000a900473ffffffffffffffffffffffffffffffffffffffff1673ffffffffffffffffffffffffffffffffffffffff16815260200190600101908083116103ca575b5050505050905090565b3373ffffffffffffffffffffffffffffffffffffffff16600060019054906101000a900473ffffffffffffffffffffffffffffffffffffffff1673ffffffffffffffffffffffffffffffffffffffff161461047857600080fd5b6000600154141561048857600080fd5b60008060019054906101000a900473ffffffffffffffffffffffffffffffffffffffff166001546040516104bb906105e3565b808373ffffffffffffffffffffffffffffffffffffffff1673ffffffffffffffffffffffffffffffffffffffff16815260200182815260200192505050604051809103906000f080158015610514573d6000803e3d6000fd5b50905060028190806001815401808255809150509060018203906000526020600020016000909192909190916101000a81548173ffffffffffffffffffffffffffffffffffffffff021916908373ffffffffffffffffffffffffffffffffffffffff160217905550507f923adbc87f0779ec430116d167509b913d1e920d6d5ac8da78dd8bb8dc09828081604051808273ffffffffffffffffffffffffffffffffffffffff1673ffffffffffffffffffffffffffffffffffffffff16815260200191505060405180910390a150565b610ae1806105f18339019056fe608060405234801561001057600080fd5b50604051610ae1380380610ae18339818101604052604081101561003357600080fd5b81019080805190602001909291908051906020019092919050505081600160006101000a81548173ffffffffffffffffffffffffffffffffffffffff021916908373ffffffffffffffffffffffffffffffffffffffff160217905550806002819055505050610a3a806100a76000396000f3fe6080604052600436106100c25760003560e01c80635b5693501161007f5780639ddfc6f1116100595780639ddfc6f11461061b578063a7b23255146106e3578063ab05e114146106fa578063f770e6dd146107c2576100c2565b80635b56935014610481578063892385df1461054957806396b9d57214610611576100c2565b80631c275eb9146100c75780631d3e1c7b1461018f5780632a1afcd9146102575780632ca4bb7f146102e75780633438e220146103af5780634284d9a614610477575b600080fd5b3480156100d357600080fd5b5061018d600480360360208110156100ea57600080fd5b810190808035906020019064010000000081111561010757600080fd5b82018360208201111561011957600080fd5b8035906020019184600183028401116401000000008311171561013b57600080fd5b91908080601f016020809104026020016040519081016040528093929190818152602001838380828437600081840152601f19601f82011690508083019250505050505050919291929050505061088a565b005b34801561019b57600080fd5b50610255600480360360208110156101b257600080fd5b81019080803590602001906401000000008111156101cf57600080fd5b8201836020820111156101e157600080fd5b8035906020019184600183028401116401000000008311171561020357600080fd5b91908080601f016020809104026020016040519081016040528093929190818152602001838380828437600081840152601f19601f82011690508083019250505050505050919291929050505061088d565b005b34801561026357600080fd5b5061026c610890565b6040518080602001828103825283818151815260200191508051906020019080838360005b838110156102ac578082015181840152602081019050610291565b50505050905090810190601f1680156102d95780820380516001836020036101000a031916815260200191505b509250505060405180910390f35b3480156102f357600080fd5b506103ad6004803603602081101561030a57600080fd5b810190808035906020019064010000000081111561032757600080fd5b82018360208201111561033957600080fd5b8035906020019184600183028401116401000000008311171561035b57600080fd5b91908080601f016020809104026020016040519081016040528093929190818152602001838380828437600081840152601f19601f82011690508083019250505050505050919291929050505061092e565b005b3480156103bb57600080fd5b50610475600480360360208110156103d257600080fd5b81019080803590602001906401000000008111156103ef57600080fd5b82018360208201111561040157600080fd5b8035906020019184600183028401116401000000008311171561042357600080fd5b91908080601f016020809104026020016040519081016040528093929190818152602001838380828437600081840152601f19601f820116905080830192505050505050509192919290505050610931565b005b61047f610934565b005b34801561048d57600080fd5b50610547600480360360208110156104a457600080fd5b81019080803590602001906401000000008111156104c157600080fd5b8201836020820111156104d357600080fd5b803590602001918460018302840111640100000000831117156104f557600080fd5b91908080601f016020809104026020016040519081016040528093929190818152602001838380828437600081840152601f19601f820116905080830192505050505050509192919290505050610936565b005b34801561055557600080fd5b5061060f6004803603602081101561056c57600080fd5b810190808035906020019064010000000081111561058957600080fd5b82018360208201111561059b57600080fd5b803590602001918460018302840111640100000000831117156105bd57600080fd5b91908080601f016020809104026020016040519081016040528093929190818152602001838380828437600081840152601f19601f820116905080830192505050505050509192919290505050610939565b005b61061961093c565b005b34801561062757600080fd5b506106e16004803603602081101561063e57600080fd5b810190808035906020019064010000000081111561065b57600080fd5b82018360208201111561066d57600080fd5b8035906020019184600183028401116401000000008311171561068f57600080fd5b91908080601f016020809104026020016040519081016040528093929190818152602001838380828437600081840152601f19601f82011690508083019250505050505050919291929050505061093e565b005b3480156106ef57600080fd5b506106f8610958565b005b34801561070657600080fd5b506107c06004803603602081101561071d57600080fd5b810190808035906020019064010000000081111561073a57600080fd5b82018360208201111561074c57600080fd5b8035906020019184600183028401116401000000008311171561076e57600080fd5b91908080601f016020809104026020016040519081016040528093929190818152602001838380828437600081840152601f19601f82011690508083019250505050505050919291929050505061095a565b005b3480156107ce57600080fd5b50610888600480360360208110156107e557600080fd5b810190808035906020019064010000000081111561080257600080fd5b82018360208201111561081457600080fd5b8035906020019184600183028401116401000000008311171561083657600080fd5b91908080601f016020809104026020016040519081016040528093929190818152602001838380828437600081840152601f19601f82011690508083019250505050505050919291929050505061095d565b005b50565b50565b60008054600181600116156101000203166002900480601f0160208091040260200160405190810160405280929190818152602001828054600181600116156101000203166002900480156109265780601f106108fb57610100808354040283529160200191610926565b820191906000526020600020905b81548152906001019060200180831161090957829003601f168201915b505050505081565b50565b50565b565b50565b50565b565b8060009080519060200190610954929190610960565b5050565b565b50565b50565b828054600181600116156101000203166002900490600052602060002090601f016020900481019282601f106109a157805160ff19168380011785556109cf565b828001600101855582156109cf579182015b828111156109ce5782518255916020019190600101906109b3565b5b5090506109dc91906109e0565b5090565b610a0291905b808211156109fe5760008160009055506001016109e6565b5090565b9056fea265627a7a7231582071bc0a9c7ff78cb0f4ef77e615b925c85aca748f3f8faa8b5db6ee23f555c74364736f6c63430005100032a265627a7a72315820645bf4b90fb21b37866b4d08b45cd692a71b34751372b4e7fc89a3a38fc2f52664736f6c63430005100032",
  "source": "// SPDX-License-Identifier: MIT\n/*\n    Demo dApp for Machu Picchu. Also Final Project of Vu Tien Khang\n    Pepito is a Caribbian corsair. He can create PepitoDisguise using PepitoDisguiseFactory\n    Pepito has a Circuit Breaker to stop creating disguises if Hernadez de La Banane discovers\n*/\npragma solidity >=0.4.22 <0.8.0;\n\n// import \"./PepitoDisguiseFactory.sol\";    // integrate PepitoDisguiseFactory in Pepito\nimport \"./PepitoDisguise.sol\";\n\n\ncontract Pepito {\n    /*\n        Pepito is the owner of the whole system\n        He calls PepitoDisguiseFactory to create a disguise\n        He has a circuit breaker to halt everything in case of serious unsolved bug\n        He is also a factory of disguises.\n        - the main interest of a factory is to maintain an array or mapping of addresses of child contracts\n        - specially useful for persons-in-need because their contract will be their virtual secretary\n            and will maintain their balance of tokens \n            and will execute the few orders sent via SMS by the persons-in-need\n\n        Remix-compiled successfully 2020-12-05\n    */\n    bool public stopped;        // the circuit breaker\n    address public owner;       // Pepito is the owner of the whole system\n    uint256 public initialBalance;  // initial balance of a disguise\n    address[] public pepitoDisguiseAddresses;   // array of addresses of PepitoDisguise\n    event PepitoDisguiseCreated(address pepitoDisguise);\n    \n    constructor() public {\n        stopped = false;\n        owner = msg.sender;     // the owner is the EOA that created Pepito\n        initialBalance = 10;    // initial balance is 10 Pepito tokens\n    }\n    \n    modifier isAdmin() {\n        require(owner == msg.sender);\n        _;\n    }\n    modifier stopInEmergency() {\n        if(!stopped) _;\n    }\n    modifier onlyInEmergency() {\n        if(stopped) _;\n    }\n\n    function toggleContractActive() isAdmin public {\n        // You can add an additional modifier that restricts stopping a contract to be\n        // based on another action, such as a vote of users\n        stopped = !stopped;\n    }\n    \n    function registerDisguise() stopInEmergency public payable {\n        // stop creating new disguise if circuit breaker activated\n        createPepitoDisguise();\n    }\n    \n    function withdraw () onlyInEmergency public payable {   // change to external if never called inside contract\n        // some code to withdraw all tokens from all disguises if circuit breaker activated\n        // and is hopelessly FOOBAR\n    }\n    \n    function createPepitoDisguise() public {\n        require (owner == msg.sender);             // the transaction caller must be _owner Pepito\n        require (initialBalance != uint256(0));    // initial balance must not be nil\n        PepitoDisguise pepitoDisguise = new PepitoDisguise(owner, initialBalance);\n        // disguise is a future virtual secretary of persons-in-need, so its address is useful\n        pepitoDisguiseAddresses.push(address(pepitoDisguise));   // record address of disguise\n        emit PepitoDisguiseCreated(address(pepitoDisguise));\n    }\n    \n    function getPepitoDisguises() external view returns (address[] memory) {\n        return pepitoDisguiseAddresses;\n    }\n\n}\n",
  "sourcePath": "/Users/kvutien/Dropbox/MachuPicchu/Machu-Picchu/Pepito/contracts/Pepito.sol",
  "compiler": {
    "name": "solc",
    "version": "0.5.16+commit.9c3226ce.Emscripten.clang"
  },
  "schemaVersion": "3.2.5",
  "updatedAt": "2020-12-05T20:01:15.676Z",
  "devdoc": {
    "methods": {}
  },
  "userdoc": {
    "methods": {}
  }
}