{
  "contractName": "CodeTemplate",
  "abi": [
    {
      "inputs": [],
      "stateMutability": "nonpayable",
      "type": "constructor"
    },
    {
      "anonymous": false,
      "inputs": [
        {
          "indexed": false,
          "internalType": "uint256",
          "name": "disguiseCount",
          "type": "uint256"
        },
        {
          "indexed": false,
          "internalType": "uint256",
          "name": "disguiseCount1",
          "type": "uint256"
        },
        {
          "indexed": false,
          "internalType": "address[64]",
          "name": "disguiseAddresses",
          "type": "address[64]"
        }
      ],
      "name": "PepitoDisguiseCreated",
      "type": "event"
    },
    {
      "inputs": [],
      "name": "owner",
      "outputs": [
        {
          "internalType": "address",
          "name": "",
          "type": "address"
        }
      ],
      "stateMutability": "view",
      "type": "function"
    },
    {
      "inputs": [],
      "name": "stopped",
      "outputs": [
        {
          "internalType": "bool",
          "name": "",
          "type": "bool"
        }
      ],
      "stateMutability": "view",
      "type": "function"
    },
    {
      "inputs": [],
      "name": "someFunction",
      "outputs": [
        {
          "internalType": "address",
          "name": "",
          "type": "address"
        }
      ],
      "stateMutability": "payable",
      "type": "function"
    }
  ],
  "bytecode": "0x608060405234801561001057600080fd5b5060008060006101000a81548160ff02191690831515021790555033600060016101000a81548173ffffffffffffffffffffffffffffffffffffffff021916908373ffffffffffffffffffffffffffffffffffffffff1602179055506101b58061007b6000396000f3fe6080604052600436106100345760003560e01c806335b09a6e1461003957806375f12b21146100835780638da5cb5b146100b2575b600080fd5b610041610109565b604051808273ffffffffffffffffffffffffffffffffffffffff1673ffffffffffffffffffffffffffffffffffffffff16815260200191505060405180910390f35b34801561008f57600080fd5b50610098610147565b604051808215151515815260200191505060405180910390f35b3480156100be57600080fd5b506100c7610159565b604051808273ffffffffffffffffffffffffffffffffffffffff1673ffffffffffffffffffffffffffffffffffffffff16815260200191505060405180910390f35b60008060009054906101000a900460ff1661014457600060019054906101000a900473ffffffffffffffffffffffffffffffffffffffff1690505b90565b6000809054906101000a900460ff1681565b600060019054906101000a900473ffffffffffffffffffffffffffffffffffffffff168156fea2646970667358221220d89f9d7d5b0b687623aed44a37d79a42559f9b09e5501719729af643622a1f4f64736f6c63430006000033",
  "source": "// SPDX-License-Identifier: MIT\n// version of Jan 17, 2021\npragma solidity >=0.4.22 <0.8.0;\n/*  Order of contract elements\n    1.\t    Pragma statements\n    2.\t    Import statements\n    3.\t    Interfaces\n    4.\t    Libraries\n    5.\t    Contracts\n*/\n\n/**\n    @title  Machu Picchu's template structure of all Solidity smart contracts.\n    @author Vu Tien Khang\n    @notice this organisation of code will make it earsier to review code among contributors\n    @notice see https://docs.soliditylang.org/en/v0.5.3/style-guide.html\n\n    @dev    Remix-compiled successfully 2020-12-30\n*/\n\n// imports examples\nimport \"../node_modules/@openzeppelin/contracts/math/SafeMath.sol\";\n//import \"./SafeMath.sol\";      // used to compile in Remix\n\ncontract CodeTemplate {\n    using SafeMath for uint256;\n/* order of statements inside de contract\n    1.\t    State variables\n    2.\t    Struct, Arrays or Enums\n    3.\t    Events\n    4.\t    Function Modifiers\n    5.\t    Constructor\n    6.\t    Fallback — Receive function\n    7.\t    External visible functions\n    8.\t    Public visible functions\n    9.\t    Internal visible functions\n    10.\t    Private visible functions\n\norder of function modifiers\n    1.\t    Visibility\n    2.\t    Mutability\n    3.\t    Virtual\n    4.\t    Override\n    5.\t    Custom modifiers\n*/\n\n    bool public stopped;            /// @dev    the circuit breaker\n    address public owner;           /// @dev    account that deployed Pepito\n\n    event PepitoDisguiseCreated(uint256 disguiseCount, uint256 disguiseCount1, address[64] disguiseAddresses);\n    \n    modifier stopInEmergency() {    /// @dev    the caller of the breaker must be Pepito\n        if(!stopped) _;\n    }\n\n    constructor() public {\n        stopped = false;\n        owner = msg.sender;     /// @dev    the owner is the EOA that deployed Pepito\n    }\n    \n    function someFunction() public payable stopInEmergency returns(address){\n        /// @dev    create a disguise and (future) record it in IPFS\n        /// @dev    stop all creation of new disguise if circuit breaker activated\n        return owner;\n    }\n    \n    // function someFunction() public payable returns(address) {\n    // }\n    \n}\n",
  "sourcePath": "/Users/kvutien/development/Machu-Picchu/Pepito/contracts/CodeTemplate.sol",
  "compiler": {
    "name": "solc",
    "version": "0.6.0+commit.26b70077.Emscripten.clang"
  },
  "schemaVersion": "3.2.5",
  "updatedAt": "2021-03-31T14:30:08.941Z",
  "devdoc": {
    "methods": {}
  },
  "userdoc": {
    "methods": {}
  }
}