{
  "contractName": "Pepito",
  "abi": [
    {
      "inputs": [],
      "stateMutability": "nonpayable",
      "type": "constructor"
    },
    {
      "anonymous": false,
      "inputs": [
        {
          "indexed": false,
          "internalType": "uint256",
          "name": "disguiseCount",
          "type": "uint256"
        },
        {
          "indexed": false,
          "internalType": "address[32]",
          "name": "disguiseAddresses",
          "type": "address[32]"
        }
      ],
      "name": "PepitoDisguiseCreated",
      "type": "event"
    },
    {
      "anonymous": false,
      "inputs": [
        {
          "indexed": false,
          "internalType": "bool",
          "name": "stopped",
          "type": "bool"
        }
      ],
      "name": "PepitoStopped",
      "type": "event"
    },
    {
      "inputs": [
        {
          "internalType": "uint256",
          "name": "",
          "type": "uint256"
        }
      ],
      "name": "disguiseAddresses",
      "outputs": [
        {
          "internalType": "address",
          "name": "",
          "type": "address"
        }
      ],
      "stateMutability": "view",
      "type": "function",
      "constant": true
    },
    {
      "inputs": [],
      "name": "disguiseCount",
      "outputs": [
        {
          "internalType": "uint256",
          "name": "",
          "type": "uint256"
        }
      ],
      "stateMutability": "view",
      "type": "function",
      "constant": true
    },
    {
      "inputs": [],
      "name": "initialBalance",
      "outputs": [
        {
          "internalType": "uint256",
          "name": "",
          "type": "uint256"
        }
      ],
      "stateMutability": "view",
      "type": "function",
      "constant": true
    },
    {
      "inputs": [],
      "name": "owner",
      "outputs": [
        {
          "internalType": "address",
          "name": "",
          "type": "address"
        }
      ],
      "stateMutability": "view",
      "type": "function",
      "constant": true
    },
    {
      "inputs": [],
      "name": "stopped",
      "outputs": [
        {
          "internalType": "bool",
          "name": "",
          "type": "bool"
        }
      ],
      "stateMutability": "view",
      "type": "function",
      "constant": true
    },
    {
      "inputs": [],
      "name": "createPepitoDisguise",
      "outputs": [
        {
          "internalType": "contract PepitoDisguise",
          "name": "",
          "type": "address"
        }
      ],
      "stateMutability": "payable",
      "type": "function",
      "payable": true
    },
    {
      "inputs": [],
      "name": "toggleContractActive",
      "outputs": [],
      "stateMutability": "payable",
      "type": "function",
      "payable": true
    },
    {
      "inputs": [],
      "name": "withdraw",
      "outputs": [],
      "stateMutability": "payable",
      "type": "function",
      "payable": true
    }
  ],
  "bytecode": "0x608060405234801561001057600080fd5b5060008060006101000a81548160ff02191690831515021790555033600060016101000a81548173ffffffffffffffffffffffffffffffffffffffff021916908373ffffffffffffffffffffffffffffffffffffffff160217905550600a6001819055506000600281905550610bb78061008b6000396000f3fe60806040526004361061007b5760003560e01c80638da5cb5b1161004e5780638da5cb5b146100ee578063b5ac3faa14610145578063d86c95981461018f578063dd9ddfbe146101ba5761007b565b80631385d24c1461008057806318369a2a1461008a5780633ccfd60b146100b557806375f12b21146100bf575b600080fd5b610088610235565b005b34801561009657600080fd5b5061009f610302565b6040518082815260200191505060405180910390f35b6100bd610308565b005b3480156100cb57600080fd5b506100d4610317565b604051808215151515815260200191505060405180910390f35b3480156100fa57600080fd5b50610103610329565b604051808273ffffffffffffffffffffffffffffffffffffffff1673ffffffffffffffffffffffffffffffffffffffff16815260200191505060405180910390f35b61014d61034f565b604051808273ffffffffffffffffffffffffffffffffffffffff1673ffffffffffffffffffffffffffffffffffffffff16815260200191505060405180910390f35b34801561019b57600080fd5b506101a46105e1565b6040518082815260200191505060405180910390f35b3480156101c657600080fd5b506101f3600480360360208110156101dd57600080fd5b81019080803590602001909291905050506105e7565b604051808273ffffffffffffffffffffffffffffffffffffffff1673ffffffffffffffffffffffffffffffffffffffff16815260200191505060405180910390f35b3373ffffffffffffffffffffffffffffffffffffffff16600060019054906101000a900473ffffffffffffffffffffffffffffffffffffffff1673ffffffffffffffffffffffffffffffffffffffff161461028f57600080fd5b6000809054906101000a900460ff16156000806101000a81548160ff0219169083151502179055507fa70b3e24b0817a0077437c72806bbf69dda5e05e06318ac20c2add71ad08a55e6000809054906101000a900460ff16604051808215151515815260200191505060405180910390a1565b60015481565b6000809054906101000a905050565b6000809054906101000a900460ff1681565b600060019054906101000a900473ffffffffffffffffffffffffffffffffffffffff1681565b60003373ffffffffffffffffffffffffffffffffffffffff16600060019054906101000a900473ffffffffffffffffffffffffffffffffffffffff1673ffffffffffffffffffffffffffffffffffffffff16146103f7576040517f08c379a0000000000000000000000000000000000000000000000000000000008152600401808060200182810382526025815260200180610b326025913960400191505060405180910390fd5b602060025410610452576040517f08c379a000000000000000000000000000000000000000000000000000000000815260040180806020018281038252602b815260200180610b57602b913960400191505060405180910390fd5b60008060019054906101000a900473ffffffffffffffffffffffffffffffffffffffff16604051610482906106a2565b808273ffffffffffffffffffffffffffffffffffffffff1673ffffffffffffffffffffffffffffffffffffffff168152602001915050604051809103906000f0801580156104d4573d6000803e3d6000fd5b509050806003600254602081106104e757fe5b0160006101000a81548173ffffffffffffffffffffffffffffffffffffffff021916908373ffffffffffffffffffffffffffffffffffffffff16021790555061053c600160025461061a90919063ffffffff16565b6002819055507f8367bd469a487c8678717b319d135d475852f0b483bddc97a1ca779b02ce193160025460036040518083815260200182602080156105cc576020028201915b8160009054906101000a900473ffffffffffffffffffffffffffffffffffffffff1673ffffffffffffffffffffffffffffffffffffffff1681526020019060010190808311610582575b50509250505060405180910390a18091505090565b60025481565b600381602081106105f457fe5b016000915054906101000a900473ffffffffffffffffffffffffffffffffffffffff1681565b600080828401905083811015610698576040517f08c379a000000000000000000000000000000000000000000000000000000000815260040180806020018281038252601b8152602001807f536166654d6174683a206164646974696f6e206f766572666c6f77000000000081525060200191505060405180910390fd5b8091505092915050565b610482806106b08339019056fe608060405234801561001057600080fd5b506040516104823803806104828339818101604052602081101561003357600080fd5b8101908080519060200190929190505050806000806101000a81548173ffffffffffffffffffffffffffffffffffffffff021916908373ffffffffffffffffffffffffffffffffffffffff1602179055506000600181905550506103e68061009c6000396000f3fe60806040526004361061004a5760003560e01c80636a688d171461004f578063839226171461009e57806396b9d572146101055780639e1a4d191461010f578063a7b232551461013a575b600080fd5b34801561005b57600080fd5b506100886004803603602081101561007257600080fd5b8101908080359060200190929190505050610180565b6040518082815260200191505060405180910390f35b61010360048036036101808110156100b557600080fd5b81019080806101800190600c806020026040519081016040528092919082600c60200280828437600081840152601f19601f8201169050808301925050505050509192919290505050610198565b005b61010d610239565b005b34801561011b57600080fd5b5061012461023b565b6040518082815260200191505060405180910390f35b610142610241565b6040518082600c60200280838360005b8381101561016d578082015181840152602081019050610152565b5050505090500191505060405180910390f35b600281600c811061018d57fe5b016000915090505481565b80600290600c6101a9929190610328565b507f504b87d066706ec2b4783bbd17c499c1dee069b91237189ac5319b5b1abbd3d9306002604051808373ffffffffffffffffffffffffffffffffffffffff1673ffffffffffffffffffffffffffffffffffffffff16815260200182600c8015610228576020028201915b815481526020019060010190808311610214575b50509250505060405180910390a150565b565b60015481565b610249610368565b7fe9ba7b1b0b27c6ab2b810a6374133382246908ff3a8732905a29993c7f2c95ab306002604051808373ffffffffffffffffffffffffffffffffffffffff1673ffffffffffffffffffffffffffffffffffffffff16815260200182600c80156102c7576020028201915b8154815260200190600101908083116102b3575b50509250505060405180910390a1600180600082825401925050819055506002600c806020026040519081016040528092919082600c801561031e576020028201915b81548152602001906001019080831161030a575b5050505050905090565b82600c8101928215610357579160200282015b8281111561035657825182559160200191906001019061033b565b5b509050610364919061038b565b5090565b604051806101800160405280600c90602082028038833980820191505090505090565b6103ad91905b808211156103a9576000816000905550600101610391565b5090565b9056fea26469706673582212203fefb9ad955dae77c14637db74e2032bd30ae7c61e445438e809e15d6ee53b4664736f6c63430006000033746865207472616e73616374696f6e2063616c6c6572206d7573742062652050657069746f746865726520686173206265656e20616c7265616479203332206469736775697365732063726561746564a264697066735822122008bb8802bbf26e948aa6c707894801279a5e4d97de6d3473b55644bdb028550064736f6c63430006000033",
  "source": "// SPDX-License-Identifier: MIT\n// version of Jan 17, 2021 - structure follows CodeTemplate.sol\npragma solidity >=0.6.0 <0.8.0;\n\n/**\n    @title  Pepito. Demo dApp for Machu Picchu. Also Final Project of...\n    @author Vu Tien Khang\n    @notice Pepito is a Caribbian corsair. He can create up to 32 PepitoDisguise in this version\n    @notice Pepito's function is similar to ENS Registry.sol, PepitoDisguise is similar to ENS Resolver.sol\n    @dev    Pepito's Circuit Breaker stops creating disguises if Hernadez de La Banane discovers the trick :-)\n    @dev    The circuit breaker is called to halt everything in case of serious unsolved contract exploit\n    @dev    contract Pepito is a factory of disguises.\n    @dev    - the main interest of a factory is to maintain an array or mapping of addresses of child contracts\n    @dev    - specially useful for persons-in-need because their contract will be their virtual secretary\n    @dev        and will maintain their balance of tokens \n    @dev        and will execute the few orders sent via SMS by the persons-in-need\n    @dev Pepito contract only manages the array of addresses of disguise smart contracts\n    @dev PepitoDisguise contract actually manages the array the disguise options, the personal data\n\n    @dev    Remix-compiled successfully 2021-01-26\n*/\n\nimport \"./PepitoDisguise.sol\";\nimport \"../node_modules/@openzeppelin/contracts/math/SafeMath.sol\";\n//import \"./SafeMath.sol\";      // used to compile in Remix\n\ncontract Pepito {\n    using SafeMath for uint256;\n\n    bool public stopped;            /// @dev    the circuit breaker\n    address public owner;           /// @dev    account that deployed Pepito\n    uint256 public initialBalance;  /// @dev    initial balance of all disguises\n    uint256 public disguiseCount;   /// @dev    running number of disguises in array pepitoDisguiseAddresses\n    address[32] public disguiseAddresses;    /// @dev    array of addresses of contracts pepitoDisguise\n    /// @dev    array is used because disguises will be iterated and displayed\n    /// @dev    mapping may be used when disguises are transposed into people-in-need that won't be iterated\n    /// @dev    for the demo, we limit array size to 32; in real, disguises will be in IPFS database illimited number\n\n    event PepitoDisguiseCreated(uint256 disguiseCount, address[32] disguiseAddresses);\n    event PepitoStopped(bool stopped);\n\n    modifier isAdmin() {\n        require(owner == msg.sender);   /// @dev    the caller of the function must be Pepito\n        _;\n    }\n    modifier stopInEmergency() {        /// @dev    the caller of the breaker must be Pepito\n        if(!stopped) _;\n    }\n    modifier onlyInEmergency() {        /// @dev    the caller of the breaker must be Pepito\n        if(stopped) _;\n    }\n\n    constructor() public {\n        stopped = false;\n        owner = msg.sender;     /// @dev    the owner is the EOA that deployed Pepito\n        initialBalance = 10;    /// @dev    initial balance is 10 Pepito tokens\n        disguiseCount = 0;      /// @dev    number of disguises created, maintained with SafeMath\n    }\n        \n    function createPepitoDisguise() public payable returns(PepitoDisguise) {\n        /// @notice deploy an instance of PepitoDisguise with properties transferred from caller\n        require (owner == msg.sender, \"the transaction caller must be Pepito\");\n        /// @dev    future improvement: require (initialBalance != uint256(0), \"initial balance of disguise cannot be zero\");\n        require (disguiseCount < 32, \"there has been already 32 disguises created\");\n        PepitoDisguise pepitoDisguise = new PepitoDisguise(owner/*, initialBalance*/);\n        /// @dev    disguise is a future virtual secretary of persons-in-need, so its contract address is useful\n        /// @dev    the disguise is instantiated here, will be filled by functions in pepitoDisguise()\n        disguiseAddresses[disguiseCount] = address(pepitoDisguise);\n        disguiseCount = disguiseCount.add(1);   ///@dev used by SafeMath\n        emit PepitoDisguiseCreated(disguiseCount, disguiseAddresses); // emit the complete array of addresses\n        return pepitoDisguise;  ///@dev verify if this return is useful somewhere\n    }\n\n    function toggleContractActive() public payable isAdmin {\n        /// @dev    Circuit breaker to stop the smart contract in desperate cases & restart it\n        /// @dev    In the future we can add an additional modifier that restricts stopping a contract to be\n        /// @dev    based on another action, such as a vote of users\n        stopped = !stopped;\n        emit PepitoStopped(stopped);\n    }\n    \n    function withdraw () onlyInEmergency public payable {\n        /// @dev    withdraw balances of all tokens when situation is desperate\n        /// @dev    change 'public' to 'external' to reduce gas if never called inside this contract\n        /// @dev    add some code to withdraw all tokens from all disguises if circuit breaker activated\n        /// @dev    and contract is hopelessly FOOBAR\n   }\n}\n",
  "sourcePath": "/Users/kvutien/development/Machu-Picchu/Pepito/contracts/Pepito.sol",
  "compiler": {
    "name": "solc",
    "version": "0.6.0+commit.26b70077.Emscripten.clang"
  },
  "schemaVersion": "3.2.5",
  "updatedAt": "2021-04-01T16:31:20.666Z",
  "networkType": "ethereum",
  "devdoc": {
    "methods": {}
  },
  "userdoc": {
    "methods": {}
  }
}