{
  "contractName": "HelperInstitution",
  "abi": [
    {
      "inputs": [
        {
          "internalType": "address",
          "name": "_personInNeed",
          "type": "address"
        }
      ],
      "stateMutability": "nonpayable",
      "type": "constructor"
    },
    {
      "inputs": [],
      "name": "owner",
      "outputs": [
        {
          "internalType": "address",
          "name": "",
          "type": "address"
        }
      ],
      "stateMutability": "view",
      "type": "function"
    },
    {
      "inputs": [],
      "name": "personInNeed",
      "outputs": [
        {
          "internalType": "address",
          "name": "",
          "type": "address"
        }
      ],
      "stateMutability": "view",
      "type": "function"
    }
  ],
  "bytecode": "0x608060405234801561001057600080fd5b5060405161025f38038061025f8339818101604052602081101561003357600080fd5b8101908080519060200190929190505050600073ffffffffffffffffffffffffffffffffffffffff168173ffffffffffffffffffffffffffffffffffffffff16141561007e57600080fd5b33600160006101000a81548173ffffffffffffffffffffffffffffffffffffffff021916908373ffffffffffffffffffffffffffffffffffffffff160217905550806000806101000a81548173ffffffffffffffffffffffffffffffffffffffff021916908373ffffffffffffffffffffffffffffffffffffffff160217905550506101508061010f6000396000f3fe608060405234801561001057600080fd5b50600436106100365760003560e01c806335b80d121461003b5780638da5cb5b14610085575b600080fd5b6100436100cf565b604051808273ffffffffffffffffffffffffffffffffffffffff1673ffffffffffffffffffffffffffffffffffffffff16815260200191505060405180910390f35b61008d6100f4565b604051808273ffffffffffffffffffffffffffffffffffffffff1673ffffffffffffffffffffffffffffffffffffffff16815260200191505060405180910390f35b6000809054906101000a900473ffffffffffffffffffffffffffffffffffffffff1681565b600160009054906101000a900473ffffffffffffffffffffffffffffffffffffffff168156fea2646970667358221220ba3b53305b63e1099de4163544c0276215611b9438762e859934d3b2ef170b3464736f6c63430006000033",
  "source": "// SPDX-License-Identifier: MIT\npragma solidity >=0.4.22 <0.8.0;\n/* Contract (placeholder) to manage Machu Picchu helper institution\n*/\ncontract HelperInstitution {\n    address public personInNeed;\n    address public owner;\n\n    constructor (address _personInNeed) public {\n        require(_personInNeed != address(0x0));\n        owner = msg.sender;\n        personInNeed = _personInNeed;\n    }\n}\n\n/* \nin migrations/2_deploy_contracts.js prepare argument to deploy the constructor\nconst HelperInstitution = artifacts.require('./HelperInstitution.sol')\n\nmodule.exports = (deployer, network, accounts) => {\n  const userAddress = accounts[3];\n  deployer.deploy(HelperInstitution, userAddress)\n}\n*/\n",
  "sourcePath": "/Users/kvutien/Dropbox/MachuPicchu/Machu-Picchu/Pepito/contracts/DraftHelperInstitution.sol",
  "compiler": {
    "name": "solc",
    "version": "0.6.0+commit.26b70077.Emscripten.clang"
  },
  "schemaVersion": "3.2.5",
  "updatedAt": "2020-12-30T11:38:50.865Z",
  "devdoc": {
    "methods": {}
  },
  "userdoc": {
    "methods": {}
  }
}