{
  "contractName": "PepitoDisguise",
  "abi": [
    {
      "inputs": [
        {
          "internalType": "address",
          "name": "_pepitoDisguiseOwner",
          "type": "address"
        }
      ],
      "stateMutability": "nonpayable",
      "type": "constructor"
    },
    {
      "anonymous": false,
      "inputs": [
        {
          "indexed": false,
          "internalType": "address",
          "name": "disguiseAddress",
          "type": "address"
        },
        {
          "indexed": false,
          "internalType": "uint256[12]",
          "name": "disguise",
          "type": "uint256[12]"
        }
      ],
      "name": "DisguiseRead",
      "type": "event"
    },
    {
      "anonymous": false,
      "inputs": [
        {
          "indexed": false,
          "internalType": "address",
          "name": "disguiseAddress",
          "type": "address"
        },
        {
          "indexed": false,
          "internalType": "uint256[12]",
          "name": "disguise",
          "type": "uint256[12]"
        }
      ],
      "name": "DisguiseStored",
      "type": "event"
    },
    {
      "inputs": [
        {
          "internalType": "uint256",
          "name": "",
          "type": "uint256"
        }
      ],
      "name": "disguiseInStore",
      "outputs": [
        {
          "internalType": "uint256",
          "name": "",
          "type": "uint256"
        }
      ],
      "stateMutability": "view",
      "type": "function",
      "constant": true
    },
    {
      "inputs": [
        {
          "internalType": "uint256[12]",
          "name": "_disguise2store",
          "type": "uint256[12]"
        }
      ],
      "name": "storeDisguise",
      "outputs": [],
      "stateMutability": "payable",
      "type": "function",
      "payable": true
    },
    {
      "inputs": [],
      "name": "readDisguise",
      "outputs": [
        {
          "internalType": "uint256[12]",
          "name": "",
          "type": "uint256[12]"
        }
      ],
      "stateMutability": "payable",
      "type": "function",
      "payable": true
    },
    {
      "inputs": [],
      "name": "updateDisguise",
      "outputs": [],
      "stateMutability": "payable",
      "type": "function",
      "payable": true
    }
  ],
  "bytecode": "0x608060405234801561001057600080fd5b506040516104363803806104368339818101604052602081101561003357600080fd5b8101908080519060200190929190505050806000806101000a81548173ffffffffffffffffffffffffffffffffffffffff021916908373ffffffffffffffffffffffffffffffffffffffff16021790555060006001819055505061039a8061009c6000396000f3fe60806040526004361061003f5760003560e01c80636a688d1714610044578063839226171461009357806396b9d572146100fa578063a7b2325514610104575b600080fd5b34801561005057600080fd5b5061007d6004803603602081101561006757600080fd5b810190808035906020019092919050505061014a565b6040518082815260200191505060405180910390f35b6100f860048036036101808110156100aa57600080fd5b81019080806101800190600c806020026040519081016040528092919082600c60200280828437600081840152601f19601f8201169050808301925050505050509192919290505050610162565b005b610102610203565b005b61010c610205565b6040518082600c60200280838360005b8381101561013757808201518184015260208101905061011c565b5050505090500191505060405180910390f35b600281600c811061015757fe5b016000915090505481565b80600290600c6101739291906102dc565b507f504b87d066706ec2b4783bbd17c499c1dee069b91237189ac5319b5b1abbd3d9306002604051808373ffffffffffffffffffffffffffffffffffffffff1673ffffffffffffffffffffffffffffffffffffffff16815260200182600c80156101f2576020028201915b8154815260200190600101908083116101de575b50509250505060405180910390a150565b565b61020d61031c565b7fe9ba7b1b0b27c6ab2b810a6374133382246908ff3a8732905a29993c7f2c95ab306002604051808373ffffffffffffffffffffffffffffffffffffffff1673ffffffffffffffffffffffffffffffffffffffff16815260200182600c801561028b576020028201915b815481526020019060010190808311610277575b50509250505060405180910390a16002600c806020026040519081016040528092919082600c80156102d2576020028201915b8154815260200190600101908083116102be575b5050505050905090565b82600c810192821561030b579160200282015b8281111561030a5782518255916020019190600101906102ef565b5b509050610318919061033f565b5090565b604051806101800160405280600c90602082028038833980820191505090505090565b61036191905b8082111561035d576000816000905550600101610345565b5090565b9056fea2646970667358221220fc4051d049c627b8424591ac625ee881d3b611cae352efca25973f2d5774ae3064736f6c63430006000033",
  "source": "// SPDX-License-Identifier: MIT\npragma solidity >=0.4.22 <0.8.0;\n\n/** Solidity NatSpec format\n    @title  PepitoDisguise. Demo dApp for Machu Picchu. Also Final Project of\n    @author Vu Tien Khang\n    @notice Pepito is a Caribbian corsair. He can create up to 64 PepitoDisguise in this demo\n    @notice A disguise is composed of many features, each feature has many options\n    @notice Currently, features and options are hard-coded in a array to optise blockchain storage\n    @notice     ... once moved to IPFS, features and options will be key-value pairs, open-ended\n    @notice Copy this contract to generate also farmers, refugees, homeless etc.\n    @dev    PepitoDisguise's function is similar to ENS Resolver.sol, Pepito to ENS Registry.sol\n\n    @dev    Remix-compiled successfully 2021-01-17\n*/\n\ncontract PepitoDisguise {\n    // state variables\n    address pepitoDisguiseOwner;        /// @dev    the owner of the disguise is Pepito\n    uint256 balance;                    /// @dev    running balance of pepitoTokens of this disguise\n    uint256[12] public disguiseInStore;    /// @dev    the disguise, fixed array of 12 feature indexes\n   \n    event DisguiseStored(address disguiseAddress, uint256[12] disguise);\n    event DisguiseRead(address disguiseAddress, uint256[12] disguise);\n\n    constructor(address _pepitoDisguiseOwner/*, uint _initialBalance*/) public {\n        pepitoDisguiseOwner = _pepitoDisguiseOwner;\n        // balance = _initialBalance;\n        balance = 0;\n    }\n    \n    function storeDisguise(uint256[12] memory _disguise2store) public payable {\n        /// @dev    write the struct storedData in blockchain first, IPFS database in future\n        disguiseInStore = _disguise2store;\n        emit DisguiseStored(address(this), disguiseInStore);\n    }\n\n    function readDisguise() public payable returns(uint256[12] memory) {\n        /// @dev    in the future, retrieves the global variable disguiseInStore from IPFS database\n        /// @dev    payable so that in the future, can be paid to provide its details\n        emit DisguiseRead(address(this), disguiseInStore);\n        return disguiseInStore;\n    }\n\n    function updateDisguise() public payable {\n        /// @dev    read, update, write back the struct storedData in IPFS database\n        /// @dev    TODO: to be filled\n    }\n    \n    /// @dev    functions to modify individual elements of the disguise\n    // function setTopType(TopTypes x) public {    /// @dev    test function, set one character feature in the struct\n    //     storedDisguise.topType = x;             /// @dev    to be replaced by adequate when finalised\n    // }\n    // function setHatColor(HatColors x) public { storedDisguise.hatColor = x; }\n    // function setAccessoriesType(AccessoriesTypes x) public { storedDisguise.accessoriesType = x; }\n    // function setHairColor(HairColors x) public { storedDisguise.hairColor = x; }\n    // function setFacialHairType(FacialHairTypes x) public {storedDisguise.facialHairType = x; }\n    // function setClotheType(ClotheTypes x) public {storedDisguise.clotheType = x; }\n    // function setClotheColor(ClotheColors x) public {storedDisguise.clotheColor = x; }\n    // function setEyeType(EyeTypes x) public {storedDisguise.eyeType = x; }\n    // function setEyebrowType(EyebrowTypes x) public {storedDisguise.eyebrowType = x; }\n    // function setMouthType(MouthTypes x) public {storedDisguise.mouthType = x; }\n    // function setSkinColor(SkinColors x) public {storedDisguise.skinColor = x; }\n\n}\n",
  "sourcePath": "/Users/kvutien/Dropbox/MachuPicchu/Machu-Picchu/Pepito/contracts/PepitoDisguise.sol",
  "compiler": {
    "name": "solc",
    "version": "0.6.0+commit.26b70077.Emscripten.clang"
  },
  "schemaVersion": "3.2.5",
  "updatedAt": "2021-01-25T18:05:20.352Z",
  "networkType": "ethereum",
  "devdoc": {
    "author": "Vu Tien Khang",
    "details": "PepitoDisguise's function is similar to ENS Resolver.sol, Pepito to ENS Registry.solRemix-compiled successfully 2021-01-17",
    "methods": {},
    "title": "PepitoDisguise. Demo dApp for Machu Picchu. Also Final Project of"
  },
  "userdoc": {
    "methods": {},
    "notice": "Solidity NatSpec formatPepito is a Caribbian corsair. He can create up to 64 PepitoDisguise in this demoA disguise is composed of many features, each feature has many optionsCurrently, features and options are hard-coded in a array to optise blockchain storage... once moved to IPFS, features and options will be key-value pairs, open-endedCopy this contract to generate also farmers, refugees, homeless etc."
  }
}