{
  "contractName": "Pepito",
  "abi": [
    {
      "inputs": [],
      "stateMutability": "nonpayable",
      "type": "constructor"
    },
    {
      "anonymous": false,
      "inputs": [
        {
          "indexed": false,
          "internalType": "uint256",
          "name": "disguiseCount",
          "type": "uint256"
        },
        {
          "indexed": false,
          "internalType": "uint256",
          "name": "disguiseCount1",
          "type": "uint256"
        },
        {
          "indexed": false,
          "internalType": "address[64]",
          "name": "disguiseAddresses",
          "type": "address[64]"
        }
      ],
      "name": "PepitoDisguiseCreated",
      "type": "event"
    },
    {
      "inputs": [
        {
          "internalType": "uint256",
          "name": "",
          "type": "uint256"
        }
      ],
      "name": "disguiseAddresses",
      "outputs": [
        {
          "internalType": "address",
          "name": "",
          "type": "address"
        }
      ],
      "stateMutability": "view",
      "type": "function",
      "constant": true
    },
    {
      "inputs": [],
      "name": "disguiseCount",
      "outputs": [
        {
          "internalType": "uint256",
          "name": "",
          "type": "uint256"
        }
      ],
      "stateMutability": "view",
      "type": "function",
      "constant": true
    },
    {
      "inputs": [],
      "name": "disguiseCount1",
      "outputs": [
        {
          "internalType": "uint256",
          "name": "",
          "type": "uint256"
        }
      ],
      "stateMutability": "view",
      "type": "function",
      "constant": true
    },
    {
      "inputs": [],
      "name": "initialBalance",
      "outputs": [
        {
          "internalType": "uint256",
          "name": "",
          "type": "uint256"
        }
      ],
      "stateMutability": "view",
      "type": "function",
      "constant": true
    },
    {
      "inputs": [],
      "name": "owner",
      "outputs": [
        {
          "internalType": "address",
          "name": "",
          "type": "address"
        }
      ],
      "stateMutability": "view",
      "type": "function",
      "constant": true
    },
    {
      "inputs": [],
      "name": "stopped",
      "outputs": [
        {
          "internalType": "bool",
          "name": "",
          "type": "bool"
        }
      ],
      "stateMutability": "view",
      "type": "function",
      "constant": true
    },
    {
      "inputs": [],
      "name": "createPepitoDisguise",
      "outputs": [
        {
          "internalType": "contract PepitoDisguise",
          "name": "",
          "type": "address"
        }
      ],
      "stateMutability": "payable",
      "type": "function",
      "payable": true
    },
    {
      "inputs": [],
      "name": "toggleContractActive",
      "outputs": [],
      "stateMutability": "nonpayable",
      "type": "function"
    },
    {
      "inputs": [],
      "name": "withdraw",
      "outputs": [],
      "stateMutability": "payable",
      "type": "function",
      "payable": true
    }
  ],
  "bytecode": "0x608060405234801561001057600080fd5b5060008060006101000a81548160ff02191690831515021790555033600060016101000a81548173ffffffffffffffffffffffffffffffffffffffff021916908373ffffffffffffffffffffffffffffffffffffffff160217905550600a60018190555060006002819055506000600381905550610a11806100936000396000f3fe6080604052600436106100865760003560e01c806375f12b211161005957806375f12b21146101025780638da5cb5b14610131578063b5ac3faa14610188578063d86c9598146101d2578063dd9ddfbe146101fd57610086565b80631385d24c1461008b57806318369a2a146100a25780633ccfd60b146100cd5780635d3850e4146100d7575b600080fd5b34801561009757600080fd5b506100a0610278565b005b3480156100ae57600080fd5b506100b76102fc565b6040518082815260200191505060405180910390f35b6100d5610302565b005b3480156100e357600080fd5b506100ec610311565b6040518082815260200191505060405180910390f35b34801561010e57600080fd5b50610117610317565b604051808215151515815260200191505060405180910390f35b34801561013d57600080fd5b50610146610329565b604051808273ffffffffffffffffffffffffffffffffffffffff1673ffffffffffffffffffffffffffffffffffffffff16815260200191505060405180910390f35b61019061034f565b604051808273ffffffffffffffffffffffffffffffffffffffff1673ffffffffffffffffffffffffffffffffffffffff16815260200191505060405180910390f35b3480156101de57600080fd5b506101e76105f7565b6040518082815260200191505060405180910390f35b34801561020957600080fd5b506102366004803603602081101561022057600080fd5b81019080803590602001909291905050506105fd565b604051808273ffffffffffffffffffffffffffffffffffffffff1673ffffffffffffffffffffffffffffffffffffffff16815260200191505060405180910390f35b3373ffffffffffffffffffffffffffffffffffffffff16600060019054906101000a900473ffffffffffffffffffffffffffffffffffffffff1673ffffffffffffffffffffffffffffffffffffffff16146102d257600080fd5b6000809054906101000a900460ff16156000806101000a81548160ff021916908315150217905550565b60015481565b6000809054906101000a905050565b60035481565b6000809054906101000a900460ff1681565b600060019054906101000a900473ffffffffffffffffffffffffffffffffffffffff1681565b60003373ffffffffffffffffffffffffffffffffffffffff16600060019054906101000a900473ffffffffffffffffffffffffffffffffffffffff1673ffffffffffffffffffffffffffffffffffffffff16146103f7576040517f08c379a000000000000000000000000000000000000000000000000000000000815260040180806020018281038252602581526020018061098c6025913960400191505060405180910390fd5b604060035410610452576040517f08c379a000000000000000000000000000000000000000000000000000000000815260040180806020018281038252602b8152602001806109b1602b913960400191505060405180910390fd5b60008060019054906101000a900473ffffffffffffffffffffffffffffffffffffffff16604051610482906106b8565b808273ffffffffffffffffffffffffffffffffffffffff1673ffffffffffffffffffffffffffffffffffffffff168152602001915050604051809103906000f0801580156104d4573d6000803e3d6000fd5b509050806004600354604081106104e757fe5b0160006101000a81548173ffffffffffffffffffffffffffffffffffffffff021916908373ffffffffffffffffffffffffffffffffffffffff16021790555061053c600160025461063090919063ffffffff16565b5060016003600082825401925050819055507f443418cff9ddcfefe56e22c6f2ad6b7ae5b1e9848962978d3fc5f0cb53be974060025460035460046040518084815260200183815260200182604080156105e1576020028201915b8160009054906101000a900473ffffffffffffffffffffffffffffffffffffffff1673ffffffffffffffffffffffffffffffffffffffff1681526020019060010190808311610597575b5050935050505060405180910390a18091505090565b60025481565b6004816040811061060a57fe5b016000915054906101000a900473ffffffffffffffffffffffffffffffffffffffff1681565b6000808284019050838110156106ae576040517f08c379a000000000000000000000000000000000000000000000000000000000815260040180806020018281038252601b8152602001807f536166654d6174683a206164646974696f6e206f766572666c6f77000000000081525060200191505060405180910390fd5b8091505092915050565b6102c6806106c68339019056fe608060405234801561001057600080fd5b506040516102c63803806102c68339818101604052602081101561003357600080fd5b8101908080519060200190929190505050806000806101000a81548173ffffffffffffffffffffffffffffffffffffffff021916908373ffffffffffffffffffffffffffffffffffffffff16021790555060006001819055505061022a8061009c6000396000f3fe6080604052600436106100345760003560e01c8063839226171461003957806396b9d572146100ad578063a7b23255146100b7575b600080fd5b34801561004557600080fd5b506100ab600480360361018081101561005d57600080fd5b81019080806101800190600c806020026040519081016040528092919082600c60200280828437600081840152601f19601f820116905080830192505050505050919291929050505061010a565b005b6100b561011f565b005b3480156100c357600080fd5b506100cc610121565b6040518082600c60200280838360005b838110156100f75780820151818401526020810190506100dc565b5050505090500191505060405180910390f35b80600290600c61011b92919061016c565b5050565b565b6101296101ac565b6002600c806020026040519081016040528092919082600c8015610162576020028201915b81548152602001906001019080831161014e575b5050505050905090565b82600c810192821561019b579160200282015b8281111561019a57825182559160200191906001019061017f565b5b5090506101a891906101cf565b5090565b604051806101800160405280600c90602082028038833980820191505090505090565b6101f191905b808211156101ed5760008160009055506001016101d5565b5090565b9056fea264697066735822122023d1085dbaa65715ad1f6ff64428b5fa219458ebe01d91925b7cd42ebdf58ab564736f6c63430006000033746865207472616e73616374696f6e2063616c6c6572206d7573742062652050657069746f746865726520686173206265656e20616c7265616479203634206469736775697365732063726561746564a2646970667358221220a8423f97618fc605a5dafcfbebf667a98747d8d80e7b1fdc5c1eac8ed16b0bab64736f6c63430006000033",
  "source": "// SPDX-License-Identifier: MIT\n// version of Jan 17, 2021 - structure follows CodeTemplate.sol\npragma solidity >=0.4.22 <0.8.0;\n\n/**\n    @title  Pepito. Demo dApp for Machu Picchu. Also Final Project of\n    @author Vu Tien Khang\n    @notice Pepito is a Caribbian corsair. He can create up to 64 PepitoDisguise in this version\n    @notice Pepito's function is similar to ENS Registry.sol, PepitoDisguise is similar to ENS Resolver.sol\n    @dev    Pepito's Circuit Breaker stops creating disguises if Hernadez de La Banane discovers the trick :-)\n    @dev    The circuit breaker is called to halt everything in case of serious unsolved contract exploit\n    @dev    contract Pepito is a factory of disguises.\n    @dev    - the main interest of a factory is to maintain an array or mapping of addresses of child contracts\n    @dev    - specially useful for persons-in-need because their contract will be their virtual secretary\n    @dev        and will maintain their balance of tokens \n    @dev        and will execute the few orders sent via SMS by the persons-in-need\n    @dev Pepito contract only manages the array of addresses of disguise smart contracts\n    @dev PepitoDisguise contract actually manages the array the disguise options, the personal data\n\n    @dev    Remix-compiled successfully 2021-01-17\n*/\n\nimport \"./PepitoDisguise.sol\";\nimport \"../client/node_modules/@openzeppelin/contracts/math/SafeMath.sol\";\n//import \"./SafeMath.sol\";      // used to compile in Remix\n\ncontract Pepito {\n    using SafeMath for uint256;\n\n    bool public stopped;            /// @dev    the circuit breaker\n    address public owner;           /// @dev    account that deployed Pepito\n    uint256 public initialBalance;  /// @dev    initial balance of all disguises\n    uint256 public disguiseCount;   /// @dev    running number of disguises in array pepitoDisguiseAddresses\n    uint256 public disguiseCount1;  /// @dev    same but incremented without SafeMath\n    address[64] public disguiseAddresses;    /// @dev    array of addresses of contracts pepitoDisguise\n    /// @dev    array is used because disguises will be iterated and displayed\n    /// @dev    mapping may be used when disguises are transposed into people-in-need that won't be iterated\n    /// @dev    for the demo, we limit array size to 64; in real, disguises will be in IPFS database w/o number limit\n\n    event PepitoDisguiseCreated(uint256 disguiseCount, uint256 disguiseCount1, address[64] disguiseAddresses);\n    \n    modifier isAdmin() {\n        require(owner == msg.sender);   /// @dev    the caller of the function must be Pepito\n        _;\n    }\n    modifier stopInEmergency() {        /// @dev    the caller of the breaker must be Pepito\n        if(!stopped) _;\n    }\n    modifier onlyInEmergency() {        /// @dev    the caller of the breaker must be Pepito\n        if(stopped) _;\n    }\n\n    constructor() public {\n        stopped = false;\n        owner = msg.sender;     /// @dev    the owner is the EOA that deployed Pepito\n        initialBalance = 10;    /// @dev    initial balance is 10 Pepito tokens\n        disguiseCount = 0;      /// @dev    number of disguises created, maintained with SafeMath\n        disguiseCount1 = 0;     /// @dev    currently used, unsafe arithmetic\n    }\n        \n    function createPepitoDisguise() public payable returns(PepitoDisguise) {\n        /// @notice deploy an instance of PepitoDisguise with properties transferred from caller\n        require (owner == msg.sender, \"the transaction caller must be Pepito\");\n        /// @dev    future improvement: require (initialBalance != uint256(0), \"initial balance of disguise cannot be zero\");\n        require (disguiseCount1 < 64, \"there has been already 64 disguises created\");\n        PepitoDisguise pepitoDisguise = new PepitoDisguise(owner/*, initialBalance*/);\n        /// @dev    disguise is a future virtual secretary of persons-in-need, so its contract address is useful\n        /// @dev    the disguise is instantiated here, will be filled by functions in pepitoDisguise()\n        disguiseAddresses[disguiseCount1] = address(pepitoDisguise);\n        disguiseCount.add(1);   ///@dev used by SafeMath, but not working well yet\n        disguiseCount1 += 1;\n        emit PepitoDisguiseCreated(disguiseCount, disguiseCount1, disguiseAddresses); // emit the complete array of addresses\n        return pepitoDisguise;  ///@dev verify if this return is useful somewhere\n    }\n        \n        function toggleContractActive() public isAdmin {\n        /// @dev    Circuit breaker to stop the smart contract in desperate cases & restart it\n        /// @dev    In the future we can add an additional modifier that restricts stopping a contract to be\n        /// @dev    based on another action, such as a vote of users\n        stopped = !stopped;\n    }\n    \n    function withdraw () onlyInEmergency public payable {\n        /// @dev    withdraw balances of all tokens when situation is desperate\n        /// @dev    change 'public' to 'external' to reduce gas if never called inside this contract\n        /// @dev    add some code to withdraw all tokens from all disguises if circuit breaker activated\n        /// @dev    and contract is hopelessly FOOBAR\n   }\n}\n",
  "sourcePath": "/Users/kvutien/Dropbox/MachuPicchu/Machu-Picchu/Pepito/contracts/Pepito.sol",
  "compiler": {
    "name": "solc",
    "version": "0.6.0+commit.26b70077.Emscripten.clang"
  },
  "schemaVersion": "3.2.5",
  "updatedAt": "2021-01-19T16:06:12.748Z",
  "networkType": "ethereum",
  "devdoc": {
    "methods": {}
  },
  "userdoc": {
    "methods": {}
  }
}