{
  "contractName": "Pepito",
  "abi": [
    {
      "inputs": [],
      "stateMutability": "nonpayable",
      "type": "constructor"
    },
    {
      "anonymous": false,
      "inputs": [
        {
          "indexed": false,
          "internalType": "uint256",
          "name": "disguiseCount",
          "type": "uint256"
        },
        {
          "indexed": false,
          "internalType": "uint256",
          "name": "disguiseCount1",
          "type": "uint256"
        },
        {
          "indexed": false,
          "internalType": "address[64]",
          "name": "disguiseAddresses",
          "type": "address[64]"
        }
      ],
      "name": "PepitoDisguiseCreated",
      "type": "event"
    },
    {
      "inputs": [
        {
          "internalType": "uint256",
          "name": "",
          "type": "uint256"
        }
      ],
      "name": "disguiseAddresses",
      "outputs": [
        {
          "internalType": "address",
          "name": "",
          "type": "address"
        }
      ],
      "stateMutability": "view",
      "type": "function",
      "constant": true
    },
    {
      "inputs": [],
      "name": "disguiseCount",
      "outputs": [
        {
          "internalType": "uint256",
          "name": "",
          "type": "uint256"
        }
      ],
      "stateMutability": "view",
      "type": "function",
      "constant": true
    },
    {
      "inputs": [],
      "name": "disguiseCount1",
      "outputs": [
        {
          "internalType": "uint256",
          "name": "",
          "type": "uint256"
        }
      ],
      "stateMutability": "view",
      "type": "function",
      "constant": true
    },
    {
      "inputs": [],
      "name": "initialBalance",
      "outputs": [
        {
          "internalType": "uint256",
          "name": "",
          "type": "uint256"
        }
      ],
      "stateMutability": "view",
      "type": "function",
      "constant": true
    },
    {
      "inputs": [],
      "name": "owner",
      "outputs": [
        {
          "internalType": "address",
          "name": "",
          "type": "address"
        }
      ],
      "stateMutability": "view",
      "type": "function",
      "constant": true
    },
    {
      "inputs": [],
      "name": "stopped",
      "outputs": [
        {
          "internalType": "bool",
          "name": "",
          "type": "bool"
        }
      ],
      "stateMutability": "view",
      "type": "function",
      "constant": true
    },
    {
      "inputs": [],
      "name": "createPepitoDisguise",
      "outputs": [
        {
          "internalType": "contract PepitoDisguise",
          "name": "",
          "type": "address"
        }
      ],
      "stateMutability": "payable",
      "type": "function",
      "payable": true
    },
    {
      "inputs": [
        {
          "internalType": "uint256",
          "name": "i",
          "type": "uint256"
        }
      ],
      "name": "getPepitoDisguise",
      "outputs": [
        {
          "internalType": "address",
          "name": "",
          "type": "address"
        }
      ],
      "stateMutability": "view",
      "type": "function",
      "constant": true
    },
    {
      "inputs": [],
      "name": "toggleContractActive",
      "outputs": [],
      "stateMutability": "nonpayable",
      "type": "function"
    },
    {
      "inputs": [],
      "name": "withdraw",
      "outputs": [],
      "stateMutability": "payable",
      "type": "function",
      "payable": true
    }
  ],
  "bytecode": "0x608060405234801561001057600080fd5b5060008060006101000a81548160ff02191690831515021790555033600060016101000a81548173ffffffffffffffffffffffffffffffffffffffff021916908373ffffffffffffffffffffffffffffffffffffffff160217905550600a60018190555060006002819055506000600381905550610b56806100936000396000f3fe6080604052600436106100915760003560e01c8063797ffef511610059578063797ffef51461013c5780638da5cb5b146101b7578063b5ac3faa1461020e578063d86c959814610258578063dd9ddfbe1461028357610091565b80631385d24c1461009657806318369a2a146100ad5780633ccfd60b146100d85780635d3850e4146100e257806375f12b211461010d575b600080fd5b3480156100a257600080fd5b506100ab6102fe565b005b3480156100b957600080fd5b506100c2610382565b6040518082815260200191505060405180910390f35b6100e0610388565b005b3480156100ee57600080fd5b506100f7610397565b6040518082815260200191505060405180910390f35b34801561011957600080fd5b5061012261039d565b604051808215151515815260200191505060405180910390f35b34801561014857600080fd5b506101756004803603602081101561015f57600080fd5b81019080803590602001909291905050506103af565b604051808273ffffffffffffffffffffffffffffffffffffffff1673ffffffffffffffffffffffffffffffffffffffff16815260200191505060405180910390f35b3480156101c357600080fd5b506101cc610440565b604051808273ffffffffffffffffffffffffffffffffffffffff1673ffffffffffffffffffffffffffffffffffffffff16815260200191505060405180910390f35b610216610466565b604051808273ffffffffffffffffffffffffffffffffffffffff1673ffffffffffffffffffffffffffffffffffffffff16815260200191505060405180910390f35b34801561026457600080fd5b5061026d61070e565b6040518082815260200191505060405180910390f35b34801561028f57600080fd5b506102bc600480360360208110156102a657600080fd5b8101908080359060200190929190505050610714565b604051808273ffffffffffffffffffffffffffffffffffffffff1673ffffffffffffffffffffffffffffffffffffffff16815260200191505060405180910390f35b3373ffffffffffffffffffffffffffffffffffffffff16600060019054906101000a900473ffffffffffffffffffffffffffffffffffffffff1673ffffffffffffffffffffffffffffffffffffffff161461035857600080fd5b6000809054906101000a900460ff16156000806101000a81548160ff021916908315150217905550565b60015481565b6000809054906101000a905050565b60035481565b6000809054906101000a900460ff1681565b60006040821061040a576040517f08c379a0000000000000000000000000000000000000000000000000000000008152600401808060200182810382526023815260200180610afe6023913960400191505060405180910390fd5b6004826040811061041757fe5b0160009054906101000a900473ffffffffffffffffffffffffffffffffffffffff169050919050565b600060019054906101000a900473ffffffffffffffffffffffffffffffffffffffff1681565b60003373ffffffffffffffffffffffffffffffffffffffff16600060019054906101000a900473ffffffffffffffffffffffffffffffffffffffff1673ffffffffffffffffffffffffffffffffffffffff161461050e576040517f08c379a0000000000000000000000000000000000000000000000000000000008152600401808060200182810382526025815260200180610aae6025913960400191505060405180910390fd5b604060035410610569576040517f08c379a000000000000000000000000000000000000000000000000000000000815260040180806020018281038252602b815260200180610ad3602b913960400191505060405180910390fd5b60008060019054906101000a900473ffffffffffffffffffffffffffffffffffffffff16604051610599906107cf565b808273ffffffffffffffffffffffffffffffffffffffff1673ffffffffffffffffffffffffffffffffffffffff168152602001915050604051809103906000f0801580156105eb573d6000803e3d6000fd5b509050806004600354604081106105fe57fe5b0160006101000a81548173ffffffffffffffffffffffffffffffffffffffff021916908373ffffffffffffffffffffffffffffffffffffffff160217905550610653600160025461074790919063ffffffff16565b5060016003600082825401925050819055507f443418cff9ddcfefe56e22c6f2ad6b7ae5b1e9848962978d3fc5f0cb53be974060025460035460046040518084815260200183815260200182604080156106f8576020028201915b8160009054906101000a900473ffffffffffffffffffffffffffffffffffffffff1673ffffffffffffffffffffffffffffffffffffffff16815260200190600101908083116106ae575b5050935050505060405180910390a18091505090565b60025481565b6004816040811061072157fe5b016000915054906101000a900473ffffffffffffffffffffffffffffffffffffffff1681565b6000808284019050838110156107c5576040517f08c379a000000000000000000000000000000000000000000000000000000000815260040180806020018281038252601b8152602001807f536166654d6174683a206164646974696f6e206f766572666c6f77000000000081525060200191505060405180910390fd5b8091505092915050565b6102d1806107dd8339019056fe608060405234801561001057600080fd5b506040516102d13803806102d18339818101604052602081101561003357600080fd5b8101908080519060200190929190505050806000806101000a81548173ffffffffffffffffffffffffffffffffffffffff021916908373ffffffffffffffffffffffffffffffffffffffff1602179055506000600181905550506102358061009c6000396000f3fe6080604052600436106100345760003560e01c80630cf779c21461003957806396b9d572146100b7578063a7b23255146100c1575b600080fd5b34801561004557600080fd5b506100b560048036036101a081101561005d57600080fd5b81019080806101800190600c806020026040519081016040528092919082600c60200280828437600081840152601f19601f820116905080830192505050505050919291929080359060200190929190505050610114565b005b6100bf61012a565b005b3480156100cd57600080fd5b506100d661012c565b6040518082600c60200280838360005b838110156101015780820151818401526020810190506100e6565b5050505090500191505060405180910390f35b81600290600c610125929190610177565b505050565b565b6101346101b7565b6002600c806020026040519081016040528092919082600c801561016d576020028201915b815481526020019060010190808311610159575b5050505050905090565b82600c81019282156101a6579160200282015b828111156101a557825182559160200191906001019061018a565b5b5090506101b391906101da565b5090565b604051806101800160405280600c90602082028038833980820191505090505090565b6101fc91905b808211156101f85760008160009055506001016101e0565b5090565b9056fea2646970667358221220ce67a1e1f88f3d12808b5add1dfa619d425d40a62e2b74f6bc25b8e2aaf6d3d864736f6c63430006000033746865207472616e73616374696f6e2063616c6c6572206d7573742062652050657069746f746865726520686173206265656e20616c726561647920363420646973677569736573206372656174656463616e6e6f74206578697374206d6f7265207468616e20363420646973677569736573a2646970667358221220e8da40312ebc2926704c9cdbba45c6f40e9f909cd55d282c5ebbeb882b360b6c64736f6c63430006000033",
  "source": "// SPDX-License-Identifier: MIT\n// version of Jan 17, 2021 - structure follows CodeTemplate.sol\npragma solidity >=0.4.22 <0.8.0;\n\n/**\n    @title  Pepito. Demo dApp for Machu Picchu. Also Final Project of\n    @author Vu Tien Khang\n    @notice Pepito is a Caribbian corsair. He can create up to 64 PepitoDisguise in this version\n    @notice Pepito's function is similar to ENS Registry.sol, PepitoDisguise is similar to ENS Resolver.sol\n    @dev    Pepito's Circuit Breaker stops creating disguises if Hernadez de La Banane discovers the trick :-)\n    @dev    The circuit breaker is called to halt everything in case of serious unsolved contract exploit\n    @dev    contract Pepito is a factory of disguises.\n    @dev    - the main interest of a factory is to maintain an array or mapping of addresses of child contracts\n    @dev    - specially useful for persons-in-need because their contract will be their virtual secretary\n    @dev        and will maintain their balance of tokens \n    @dev        and will execute the few orders sent via SMS by the persons-in-need\n    @dev Pepito contract only manages the array of addresses of disguise smart contracts\n    @dev PepitoDisguise contract actually manages the array the disguise options, the personal data\n\n    @dev    Remix-compiled successfully 2021-01-17\n*/\n\nimport \"./PepitoDisguise.sol\";\nimport \"../client/node_modules/@openzeppelin/contracts/math/SafeMath.sol\";\n//import \"./SafeMath.sol\";      // used to compile in Remix\n\ncontract Pepito {\n    using SafeMath for uint256;\n\n    bool public stopped;            /// @dev    the circuit breaker\n    address public owner;           /// @dev    account that deployed Pepito\n    uint256 public initialBalance;  /// @dev    initial balance of all disguises\n    uint256 public disguiseCount;   /// @dev    running number of disguises in array pepitoDisguiseAddresses\n    uint256 public disguiseCount1;  /// @dev    same but incremented without SafeMath\n    address[64] public disguiseAddresses;    /// @dev    array of addresses of contracts pepitoDisguise\n    /// @dev    array is used because disguises will be iterated and displayed\n    /// @dev    mapping may be used when disguises are transposed into people-in-need that won't be iterated\n    /// @dev    for the demo, we limit array size to 64; in real, disguises will be in IPFS database w/o number limit\n\n    event PepitoDisguiseCreated(uint256 disguiseCount, uint256 disguiseCount1, address[64] disguiseAddresses);\n    \n    modifier isAdmin() {\n        require(owner == msg.sender);   /// @dev    the caller of the function must be Pepito\n        _;\n    }\n    modifier stopInEmergency() {        /// @dev    the caller of the breaker must be Pepito\n        if(!stopped) _;\n    }\n    modifier onlyInEmergency() {        /// @dev    the caller of the breaker must be Pepito\n        if(stopped) _;\n    }\n\n    constructor() public {\n        stopped = false;\n        owner = msg.sender;     /// @dev    the owner is the EOA that deployed Pepito\n        initialBalance = 10;    /// @dev    initial balance is 10 Pepito tokens\n        disguiseCount = 0;      /// @dev    number of disguises created, maintained with SafeMath\n        disguiseCount1 = 0;     /// @dev    currently used, unsafe arithmetic\n    }\n        \n    function createPepitoDisguise() public payable returns(PepitoDisguise) {\n        /// @notice deploy an instance of PepitoDisguise with properties transferred from caller\n        require (owner == msg.sender, \"the transaction caller must be Pepito\");\n        /// @dev    future improvement: require (initialBalance != uint256(0), \"initial balance of disguise cannot be zero\");\n        require (disguiseCount1 < 64, \"there has been already 64 disguises created\");\n        PepitoDisguise pepitoDisguise = new PepitoDisguise(owner/*, initialBalance*/);\n        /// @dev    disguise is a future virtual secretary of persons-in-need, so its contract address is useful\n        /// @dev    the disguise is instantiated here, will be filled by functions in pepitoDisguise()\n        disguiseAddresses[disguiseCount1] = address(pepitoDisguise);\n        disguiseCount.add(1);   ///@dev used by SafeMath, but not working well yet\n        disguiseCount1 += 1;\n        emit PepitoDisguiseCreated(disguiseCount, disguiseCount1, disguiseAddresses); // emit the complete array of addresses\n        return pepitoDisguise;  ///@dev verify if this return is useful somewhere\n    }\n    \n    function getPepitoDisguise(uint i) external view returns(address) {\n        /// @dev    this function will be called from a JavaScript loop\n        /// @dev    i is loop index, rank in the array of disguises\n        /// @return one instance of pepitoDisguiseAddress, function to retrieve its data is exposed in pepitoDisguide\n        require (i < 64, \"cannot exist more than 64 disguises\");\n        return disguiseAddresses[i];\n    }\n    \n        function toggleContractActive() public isAdmin {\n        /// @dev    Circuit breaker to stop the smart contract in desperate cases & restart it\n        /// @dev    In the future we can add an additional modifier that restricts stopping a contract to be\n        /// @dev    based on another action, such as a vote of users\n        stopped = !stopped;\n    }\n    \n    function withdraw () onlyInEmergency public payable {\n        /// @dev    withdraw balances of all tokens when situation is desperate\n        /// @dev    change 'public' to 'external' to reduce gas if never called inside this contract\n        /// @dev    add some code to withdraw all tokens from all disguises if circuit breaker activated\n        /// @dev    and contract is hopelessly FOOBAR\n   }\n}\n",
  "sourcePath": "/Users/kvutien/Dropbox/MachuPicchu/Machu-Picchu/Pepito/contracts/Pepito.sol",
  "compiler": {
    "name": "solc",
    "version": "0.6.0+commit.26b70077.Emscripten.clang"
  },
  "schemaVersion": "3.2.5",
  "updatedAt": "2021-01-19T13:54:04.228Z",
  "networkType": "ethereum",
  "devdoc": {
    "methods": {}
  },
  "userdoc": {
    "methods": {}
  }
}