{
  "contractName": "PepitoDisguise",
  "abi": [
    {
      "inputs": [
        {
          "internalType": "address",
          "name": "_pepitoDisguiseOwner",
          "type": "address"
        }
      ],
      "stateMutability": "nonpayable",
      "type": "constructor"
    },
    {
      "anonymous": false,
      "inputs": [
        {
          "indexed": false,
          "internalType": "address",
          "name": "disguiseAddress",
          "type": "address"
        },
        {
          "indexed": false,
          "internalType": "uint256[12]",
          "name": "disguise",
          "type": "uint256[12]"
        }
      ],
      "name": "DisguiseRead",
      "type": "event"
    },
    {
      "anonymous": false,
      "inputs": [
        {
          "indexed": false,
          "internalType": "address",
          "name": "disguiseAddress",
          "type": "address"
        },
        {
          "indexed": false,
          "internalType": "uint256[12]",
          "name": "disguise",
          "type": "uint256[12]"
        }
      ],
      "name": "DisguiseStored",
      "type": "event"
    },
    {
      "inputs": [
        {
          "internalType": "uint256",
          "name": "",
          "type": "uint256"
        }
      ],
      "name": "disguiseInStore",
      "outputs": [
        {
          "internalType": "uint256",
          "name": "",
          "type": "uint256"
        }
      ],
      "stateMutability": "view",
      "type": "function",
      "constant": true
    },
    {
      "inputs": [],
      "name": "tokenBalance",
      "outputs": [
        {
          "internalType": "uint256",
          "name": "",
          "type": "uint256"
        }
      ],
      "stateMutability": "view",
      "type": "function",
      "constant": true
    },
    {
      "inputs": [
        {
          "internalType": "uint256[12]",
          "name": "_disguise2store",
          "type": "uint256[12]"
        }
      ],
      "name": "storeDisguise",
      "outputs": [],
      "stateMutability": "payable",
      "type": "function",
      "payable": true
    },
    {
      "inputs": [],
      "name": "readDisguise",
      "outputs": [
        {
          "internalType": "uint256[12]",
          "name": "",
          "type": "uint256[12]"
        }
      ],
      "stateMutability": "payable",
      "type": "function",
      "payable": true
    },
    {
      "inputs": [],
      "name": "updateDisguise",
      "outputs": [],
      "stateMutability": "payable",
      "type": "function",
      "payable": true
    }
  ],
  "bytecode": "0x608060405234801561001057600080fd5b506040516104823803806104828339818101604052602081101561003357600080fd5b8101908080519060200190929190505050806000806101000a81548173ffffffffffffffffffffffffffffffffffffffff021916908373ffffffffffffffffffffffffffffffffffffffff1602179055506000600181905550506103e68061009c6000396000f3fe60806040526004361061004a5760003560e01c80636a688d171461004f578063839226171461009e57806396b9d572146101055780639e1a4d191461010f578063a7b232551461013a575b600080fd5b34801561005b57600080fd5b506100886004803603602081101561007257600080fd5b8101908080359060200190929190505050610180565b6040518082815260200191505060405180910390f35b61010360048036036101808110156100b557600080fd5b81019080806101800190600c806020026040519081016040528092919082600c60200280828437600081840152601f19601f8201169050808301925050505050509192919290505050610198565b005b61010d610239565b005b34801561011b57600080fd5b5061012461023b565b6040518082815260200191505060405180910390f35b610142610241565b6040518082600c60200280838360005b8381101561016d578082015181840152602081019050610152565b5050505090500191505060405180910390f35b600281600c811061018d57fe5b016000915090505481565b80600290600c6101a9929190610328565b507f504b87d066706ec2b4783bbd17c499c1dee069b91237189ac5319b5b1abbd3d9306002604051808373ffffffffffffffffffffffffffffffffffffffff1673ffffffffffffffffffffffffffffffffffffffff16815260200182600c8015610228576020028201915b815481526020019060010190808311610214575b50509250505060405180910390a150565b565b60015481565b610249610368565b7fe9ba7b1b0b27c6ab2b810a6374133382246908ff3a8732905a29993c7f2c95ab306002604051808373ffffffffffffffffffffffffffffffffffffffff1673ffffffffffffffffffffffffffffffffffffffff16815260200182600c80156102c7576020028201915b8154815260200190600101908083116102b3575b50509250505060405180910390a1600180600082825401925050819055506002600c806020026040519081016040528092919082600c801561031e576020028201915b81548152602001906001019080831161030a575b5050505050905090565b82600c8101928215610357579160200282015b8281111561035657825182559160200191906001019061033b565b5b509050610364919061038b565b5090565b604051806101800160405280600c90602082028038833980820191505090505090565b6103ad91905b808211156103a9576000816000905550600101610391565b5090565b9056fea2646970667358221220c3885300ecd78ae645655f456dc82fb6bbcd43175f37591c250256ae64c62d1764736f6c63430006000033",
  "source": "// SPDX-License-Identifier: MIT\npragma solidity >=0.4.22 <0.8.0;\n\n/** Solidity NatSpec format\n    @title  PepitoDisguise. Demo dApp for Machu Picchu. Also Final Project of...\n    @author Vu Tien Khang\n    @notice Pepito is a Caribbian corsair. He can create PepitoDisguise in this demo\n    @notice A disguise is composed of many features, each feature has many options\n    @notice Currently, features and options are hard-coded in a array to optise blockchain storage\n    @notice     ... once moved to IPFS, features and options will be key-value pairs, open-ended\n    @notice Copy this contract to generate also farmers, refugees, homeless persons etc.\n    @notice A disguise is a farmer, with a wallet of tokens populated by anybody who reads the description of the disguise\n    @dev    PepitoDisguise's function is similar to ENS Resolver.sol, Pepito to ENS Registry.sol\n\n    @dev    Remix-compiled successfully 2021-01-26\n*/\n\ncontract PepitoDisguise {\n    // state variables\n    address pepitoDisguiseOwner;        /// @dev    the owner of the disguise is Pepito\n    uint256 public tokenBalance;        /// @dev    running balance of pepitoTokens of this disguise\n    uint256[12] public disguiseInStore;    /// @dev    the disguise, fixed array of 12 feature indexes\n   \n    event DisguiseStored(address disguiseAddress, uint256[12] disguise);\n    event DisguiseRead(address disguiseAddress, uint256[12] disguise);\n\n    constructor(address _pepitoDisguiseOwner/*, uint _initialTokenBalance*/) public {\n        pepitoDisguiseOwner = _pepitoDisguiseOwner;\n        // tokenBalance = _initialTokenBalance; // placeholder\n        tokenBalance = 0;\n    }\n    \n    function storeDisguise(uint256[12] memory _disguise2store) public payable {\n        /// @dev    write the struct storedData in blockchain first, IPFS database in future\n        disguiseInStore = _disguise2store;\n        emit DisguiseStored(address(this), disguiseInStore);\n    }\n\n    function readDisguise() public payable returns(uint256[12] memory) {\n        /// @dev    in the future, retrieves the global variable disguiseInStore from IPFS database\n        /// @dev    payable so that in the future, a peson can be paid to provide personal details\n        emit DisguiseRead(address(this), disguiseInStore);\n        tokenBalance += 1;           // placeholder: everytime a disguise discloses its data, it will be paid\n        return disguiseInStore;\n    }\n\n    function updateDisguise() public payable {\n        /// @dev    read, update, write back the struct storedData in IPFS database\n        /// @dev    TODO: to be filled\n    }\n    \n    /// @dev    functions to modify individual elements of the disguise\n    // function setTopType(TopTypes x) public {    /// @dev    test function, set one character feature in the struct\n    //     storedDisguise.topType = x;             /// @dev    to be replaced by adequate when finalised\n    // }\n    // function setHatColor(HatColors x) public { storedDisguise.hatColor = x; }\n    // function setAccessoriesType(AccessoriesTypes x) public { storedDisguise.accessoriesType = x; }\n    // function setHairColor(HairColors x) public { storedDisguise.hairColor = x; }\n    // function setFacialHairType(FacialHairTypes x) public {storedDisguise.facialHairType = x; }\n    // function setClotheType(ClotheTypes x) public {storedDisguise.clotheType = x; }\n    // function setClotheColor(ClotheColors x) public {storedDisguise.clotheColor = x; }\n    // function setEyeType(EyeTypes x) public {storedDisguise.eyeType = x; }\n    // function setEyebrowType(EyebrowTypes x) public {storedDisguise.eyebrowType = x; }\n    // function setMouthType(MouthTypes x) public {storedDisguise.mouthType = x; }\n    // function setSkinColor(SkinColors x) public {storedDisguise.skinColor = x; }\n\n}\n",
  "sourcePath": "/Users/kvutien/development/Machu-Picchu/Pepito/contracts/PepitoDisguise.sol",
  "compiler": {
    "name": "solc",
    "version": "0.6.0+commit.26b70077.Emscripten.clang"
  },
  "schemaVersion": "3.2.5",
  "updatedAt": "2021-03-11T17:09:26.916Z",
  "networkType": "ethereum",
  "devdoc": {
    "author": "Vu Tien Khang",
    "details": "PepitoDisguise's function is similar to ENS Resolver.sol, Pepito to ENS Registry.solRemix-compiled successfully 2021-01-26",
    "methods": {},
    "title": "PepitoDisguise. Demo dApp for Machu Picchu. Also Final Project of..."
  },
  "userdoc": {
    "methods": {},
    "notice": "Solidity NatSpec formatPepito is a Caribbian corsair. He can create PepitoDisguise in this demoA disguise is composed of many features, each feature has many optionsCurrently, features and options are hard-coded in a array to optise blockchain storage... once moved to IPFS, features and options will be key-value pairs, open-endedCopy this contract to generate also farmers, refugees, homeless persons etc.A disguise is a farmer, with a wallet of tokens populated by anybody who reads the description of the disguise"
  }
}