{
  "contractName": "PepitoDisguise",
  "abi": [
    {
      "inputs": [
        {
          "internalType": "address",
          "name": "_pepitoDisguiseOwner",
          "type": "address"
        }
      ],
      "stateMutability": "nonpayable",
      "type": "constructor"
    },
    {
      "inputs": [
        {
          "internalType": "uint256[12]",
          "name": "_disguise2store",
          "type": "uint256[12]"
        },
        {
          "internalType": "uint256",
          "name": "i",
          "type": "uint256"
        }
      ],
      "name": "storeDisguise",
      "outputs": [],
      "stateMutability": "nonpayable",
      "type": "function"
    },
    {
      "inputs": [],
      "name": "readDisguise",
      "outputs": [
        {
          "internalType": "uint256[12]",
          "name": "",
          "type": "uint256[12]"
        }
      ],
      "stateMutability": "view",
      "type": "function",
      "constant": true
    },
    {
      "inputs": [],
      "name": "updateDisguise",
      "outputs": [],
      "stateMutability": "payable",
      "type": "function",
      "payable": true
    }
  ],
  "bytecode": "0x608060405234801561001057600080fd5b506040516102d13803806102d18339818101604052602081101561003357600080fd5b8101908080519060200190929190505050806000806101000a81548173ffffffffffffffffffffffffffffffffffffffff021916908373ffffffffffffffffffffffffffffffffffffffff1602179055506000600181905550506102358061009c6000396000f3fe6080604052600436106100345760003560e01c80630cf779c21461003957806396b9d572146100b7578063a7b23255146100c1575b600080fd5b34801561004557600080fd5b506100b560048036036101a081101561005d57600080fd5b81019080806101800190600c806020026040519081016040528092919082600c60200280828437600081840152601f19601f820116905080830192505050505050919291929080359060200190929190505050610114565b005b6100bf61012a565b005b3480156100cd57600080fd5b506100d661012c565b6040518082600c60200280838360005b838110156101015780820151818401526020810190506100e6565b5050505090500191505060405180910390f35b81600290600c610125929190610177565b505050565b565b6101346101b7565b6002600c806020026040519081016040528092919082600c801561016d576020028201915b815481526020019060010190808311610159575b5050505050905090565b82600c81019282156101a6579160200282015b828111156101a557825182559160200191906001019061018a565b5b5090506101b391906101da565b5090565b604051806101800160405280600c90602082028038833980820191505090505090565b6101fc91905b808211156101f85760008160009055506001016101e0565b5090565b9056fea2646970667358221220ce67a1e1f88f3d12808b5add1dfa619d425d40a62e2b74f6bc25b8e2aaf6d3d864736f6c63430006000033",
  "source": "// SPDX-License-Identifier: MIT\npragma solidity >=0.4.22 <0.8.0;\n\n/** Solidity NatSpec format\n    @title  PepitoDisguise. Demo dApp for Machu Picchu. Also Final Project of\n    @author Vu Tien Khang\n    @notice Pepito is a Caribbian corsair. He can create up to 64 PepitoDisguise in this demo\n    @notice A disguise is composed of many features, each feature has many options\n    @notice Currently, features and options are hard-coded in a array to optise blockchain storage\n    @notice     ... once moved to IPFS, features and options will be key-value pairs, open-ended\n    @notice Copy this contract to generate also farmers, refugees, homeless etc.\n    @dev    PepitoDisguise's function is similar to ENS Resolver.sol, Pepito to ENS Registry.sol\n\n    @dev    Remix-compiled successfully 2021-01-17\n*/\n\ncontract PepitoDisguise {\n    // state variables\n    address pepitoDisguiseOwner;        /// @dev    the owner of the disguise is Pepito\n    uint256 balance;                    /// @dev    running balance of pepitoTokens of this disguise\n    uint256[12] private disguiseInStore;    /// @dev    the disguise, fixed array of 12 feature indexes\n\n    /// @dev    when transposed to person-in-need, balance will be a mapping of tokens from many helperInstitutions\n    // enum TopTypes {Eyepatch, Hat, Hijab, LongHairBigHair, LongHairBob, LongHairBun, LongHairCurly, LongHairCurvy, LongHairDreads, LongHairFrida, LongHairFro, LongHairFroBand, LongHairMiaWallace, LongHairNotTooLong, LongHairShavedSides, LongHairStraight, LongHairStraight2, LongHairStraightStrand, NoHair, ShortHairDreads01, ShortHairDreads02, ShortHairFrizzle, ShortHairShaggy, ShortHairShaggyMullet, ShortHairShortCurly, ShortHairShortFlat, ShortHairShortRound, ShortHairShortWaved, ShortHairSides, ShortHairTheCaesar, ShortHairTheCaesarSidePart, Turban, WinterHat1, WinterHat2, WinterHat3, WinterHat4}\n    // enum HatColors {Black, Blue01, Blue02, Blue03, Gray01, Gray02, Heather, PastelBlue, PastelGreen, PastelOrange, PastelRed, PastelYellow, Pink, Red, White}\n    // enum AccessoriesTypes {Blank, Kurt, Prescription01, Prescription02, Round, Sunglasses, Wayfarers}\n    // enum HairColors {Auburn, Black, Blonde, BlondeGolden, Brown, BrownDark, PastelPink, Platinum, Red, SilverGray}\n    // enum FacialHairTypes {BeardLight, BeardMagestic, BeardMedium, Blank, MoustacheFancy, MoustacheMagnum}\n    // enum FacialHairColors {Auburn, Black, Brown, BrownGolden, brownBlack, Platinum, red}\n    // enum ClotheTypes {BlazerShirt, BlazerSweater, CollarSweater, GraphicShirt, Graphics, Hoodie, Overall, ShirtCrewNeck, ShirtScoopNeck, ShirtVNeck}\n    // enum ClotheColors {Black, Blue01, Blue02, Blue03, Gray01, Gray02, Heather, PastelBlue, PastelGreen, PastelOrange, PastelRed, PastelYellow, Pink, Red, White}\n    // enum EyeTypes {Close, Cry, Default, Dizzy, EyeRoll, Happy, Hearts, Side, Squint, Surprised, Wink, WinkWacky}\n    // enum EyebrowTypes {Angry, AngryNatural, Default, DefaultNatural, FlatNatural, FrownNatural, RaisedExcited, RaisedExcitedNatural, SadConcerned, SadConcernedNatural, UnibrowNatural, UpDown, UpDownNatural}\n    // enum MouthTypes {Concerned, Default, Disbelief,Eating, Grimace, Sad, ScreamOpen, Serious, Smile, Tongue, Twinkle, Vomit}\n    // enum SkinColors{ Tanned, Yellow, Pale, Light, Brown, DarkBrown, Black}\n    // struct Disguise {\n    //     TopTypes topType;       // 'Eyepatch', 'Hat', 'Hijab', 'LongHairBigHair' etc.\n    //     HatColors hatColor;     // 'Black', 'Blue01', 'Blue02' etc.\n    //     AccessoriesTypes accessoriesType; // 'Round', 'Sunglasses', 'Wayfarers' etc.\n    //     HairColors hairColor;   // 'PastelYellow', 'Pink', 'Red', 'White' etc.\n    //     FacialHairTypes facialHairType;   // 'BeardMedium', 'Blank', 'MoustacheFancy', 'MoustacheMagnum' etc.\n    //     FacialHairColors facialHairColor; // Auburn', 'Black', 'Brown' etc.\n    //     ClotheTypes clotheType; // 'BlazerSweater', 'CollarSweater', 'GraphicShirt' etc.\n    //     ClotheColors clotheColor; // 'PastelRed', 'PastelYellow', 'Pink', 'Red', 'White' etc.\n    //     EyeTypes eyeType;       // 'Close', 'Cry', 'Default', 'Dizzy', 'EyeRoll' etc.\n    //     EyebrowTypes eyebrowType; // 'Angry', 'AngryNatural', 'Default','RaisedExcited' etc.\n    //     MouthTypes mouthType;   // 'Concerned', 'Default', 'Disbelief','Eating' etc.\n    //     SkinColors skinColor;   // 'Tanned', 'Yellow', 'Pale', 'Light', 'Brown' etc.\n    // }\n    // Disguise public storedDisguise;\n    \n    constructor(address _pepitoDisguiseOwner/*, uint _initialBalance*/) public {\n        pepitoDisguiseOwner = _pepitoDisguiseOwner;\n        // balance = _initialBalance;\n        balance = 0;\n    }\n    \n    function storeDisguise(uint256[12] memory _disguise2store, uint256 i) public {\n        /// @dev    write the struct storedData in blockchain first, IPFS database in future\n        disguiseInStore = _disguise2store;\n    }\n\n    function readDisguise() public view returns(uint256[12] memory) {\n        /// @dev    in the future, retrieves the global variable disguiseInStore from IPFS database\n        return disguiseInStore;\n    }\n\n    function updateDisguise() public payable {\n        /// @dev    read, update, write back the struct storedData in IPFS database\n        /// @dev    to be filled\n    }\n    \n    /// @dev    functions to set elements of the struct storedData with data of the disguise\n    // function setTopType(TopTypes x) public {    /// @dev    test function, set one character feature in the struct\n    //     storedDisguise.topType = x;             /// @dev    to be replaced by adequate when finalised\n    // }\n    // function setHatColor(HatColors x) public { storedDisguise.hatColor = x; }\n    // function setAccessoriesType(AccessoriesTypes x) public { storedDisguise.accessoriesType = x; }\n    // function setHairColor(HairColors x) public { storedDisguise.hairColor = x; }\n    // function setFacialHairType(FacialHairTypes x) public {storedDisguise.facialHairType = x; }\n    // function setClotheType(ClotheTypes x) public {storedDisguise.clotheType = x; }\n    // function setClotheColor(ClotheColors x) public {storedDisguise.clotheColor = x; }\n    // function setEyeType(EyeTypes x) public {storedDisguise.eyeType = x; }\n    // function setEyebrowType(EyebrowTypes x) public {storedDisguise.eyebrowType = x; }\n    // function setMouthType(MouthTypes x) public {storedDisguise.mouthType = x; }\n    // function setSkinColor(SkinColors x) public {storedDisguise.skinColor = x; }\n\n}\n",
  "sourcePath": "/Users/kvutien/Dropbox/MachuPicchu/Machu-Picchu/Pepito/contracts/PepitoDisguise.sol",
  "compiler": {
    "name": "solc",
    "version": "0.6.0+commit.26b70077.Emscripten.clang"
  },
  "schemaVersion": "3.2.5",
  "updatedAt": "2021-01-19T13:54:04.222Z",
  "networkType": "ethereum",
  "devdoc": {
    "author": "Vu Tien Khang",
    "details": "PepitoDisguise's function is similar to ENS Resolver.sol, Pepito to ENS Registry.solRemix-compiled successfully 2021-01-17",
    "methods": {
      "constructor": {
        "details": "the disguise, fixed array of 12 feature indexeswhen transposed to person-in-need, balance will be a mapping of tokens from many helperInstitutions"
      }
    },
    "title": "PepitoDisguise. Demo dApp for Machu Picchu. Also Final Project of"
  },
  "userdoc": {
    "methods": {},
    "notice": "Solidity NatSpec formatPepito is a Caribbian corsair. He can create up to 64 PepitoDisguise in this demoA disguise is composed of many features, each feature has many optionsCurrently, features and options are hard-coded in a array to optise blockchain storage... once moved to IPFS, features and options will be key-value pairs, open-endedCopy this contract to generate also farmers, refugees, homeless etc."
  }
}