{
  "contractName": "Pepito",
  "abi": [
    {
      "inputs": [],
      "stateMutability": "nonpayable",
      "type": "constructor"
    },
    {
      "anonymous": false,
      "inputs": [
        {
          "indexed": false,
          "internalType": "uint256",
          "name": "disguiseCount",
          "type": "uint256"
        },
        {
          "indexed": false,
          "internalType": "uint256",
          "name": "disguiseCount1",
          "type": "uint256"
        },
        {
          "indexed": false,
          "internalType": "address[32]",
          "name": "disguiseAddresses",
          "type": "address[32]"
        }
      ],
      "name": "PepitoDisguiseCreated",
      "type": "event"
    },
    {
      "anonymous": false,
      "inputs": [
        {
          "indexed": false,
          "internalType": "bool",
          "name": "stopped",
          "type": "bool"
        }
      ],
      "name": "PepitoStopped",
      "type": "event"
    },
    {
      "inputs": [
        {
          "internalType": "uint256",
          "name": "",
          "type": "uint256"
        }
      ],
      "name": "disguiseAddresses",
      "outputs": [
        {
          "internalType": "address",
          "name": "",
          "type": "address"
        }
      ],
      "stateMutability": "view",
      "type": "function",
      "constant": true
    },
    {
      "inputs": [],
      "name": "disguiseCount",
      "outputs": [
        {
          "internalType": "uint256",
          "name": "",
          "type": "uint256"
        }
      ],
      "stateMutability": "view",
      "type": "function",
      "constant": true
    },
    {
      "inputs": [],
      "name": "disguiseCount1",
      "outputs": [
        {
          "internalType": "uint256",
          "name": "",
          "type": "uint256"
        }
      ],
      "stateMutability": "view",
      "type": "function",
      "constant": true
    },
    {
      "inputs": [],
      "name": "initialBalance",
      "outputs": [
        {
          "internalType": "uint256",
          "name": "",
          "type": "uint256"
        }
      ],
      "stateMutability": "view",
      "type": "function",
      "constant": true
    },
    {
      "inputs": [],
      "name": "owner",
      "outputs": [
        {
          "internalType": "address",
          "name": "",
          "type": "address"
        }
      ],
      "stateMutability": "view",
      "type": "function",
      "constant": true
    },
    {
      "inputs": [],
      "name": "stopped",
      "outputs": [
        {
          "internalType": "bool",
          "name": "",
          "type": "bool"
        }
      ],
      "stateMutability": "view",
      "type": "function",
      "constant": true
    },
    {
      "inputs": [],
      "name": "createPepitoDisguise",
      "outputs": [
        {
          "internalType": "contract PepitoDisguise",
          "name": "",
          "type": "address"
        }
      ],
      "stateMutability": "payable",
      "type": "function",
      "payable": true
    },
    {
      "inputs": [],
      "name": "toggleContractActive",
      "outputs": [],
      "stateMutability": "payable",
      "type": "function",
      "payable": true
    },
    {
      "inputs": [],
      "name": "withdraw",
      "outputs": [],
      "stateMutability": "payable",
      "type": "function",
      "payable": true
    }
  ],
  "bytecode": "0x608060405234801561001057600080fd5b5060008060006101000a81548160ff02191690831515021790555033600060016101000a81548173ffffffffffffffffffffffffffffffffffffffff021916908373ffffffffffffffffffffffffffffffffffffffff160217905550600a60018190555060006002819055506000600381905550610bbd806100936000396000f3fe6080604052600436106100865760003560e01c806375f12b211161005957806375f12b21146100f55780638da5cb5b14610124578063b5ac3faa1461017b578063d86c9598146101c5578063dd9ddfbe146101f057610086565b80631385d24c1461008b57806318369a2a146100955780633ccfd60b146100c05780635d3850e4146100ca575b600080fd5b61009361026b565b005b3480156100a157600080fd5b506100aa610338565b6040518082815260200191505060405180910390f35b6100c861033e565b005b3480156100d657600080fd5b506100df61034d565b6040518082815260200191505060405180910390f35b34801561010157600080fd5b5061010a610353565b604051808215151515815260200191505060405180910390f35b34801561013057600080fd5b50610139610365565b604051808273ffffffffffffffffffffffffffffffffffffffff1673ffffffffffffffffffffffffffffffffffffffff16815260200191505060405180910390f35b61018361038b565b604051808273ffffffffffffffffffffffffffffffffffffffff1673ffffffffffffffffffffffffffffffffffffffff16815260200191505060405180910390f35b3480156101d157600080fd5b506101da610633565b6040518082815260200191505060405180910390f35b3480156101fc57600080fd5b506102296004803603602081101561021357600080fd5b8101908080359060200190929190505050610639565b604051808273ffffffffffffffffffffffffffffffffffffffff1673ffffffffffffffffffffffffffffffffffffffff16815260200191505060405180910390f35b3373ffffffffffffffffffffffffffffffffffffffff16600060019054906101000a900473ffffffffffffffffffffffffffffffffffffffff1673ffffffffffffffffffffffffffffffffffffffff16146102c557600080fd5b6000809054906101000a900460ff16156000806101000a81548160ff0219169083151502179055507fa70b3e24b0817a0077437c72806bbf69dda5e05e06318ac20c2add71ad08a55e6000809054906101000a900460ff16604051808215151515815260200191505060405180910390a1565b60015481565b6000809054906101000a905050565b60035481565b6000809054906101000a900460ff1681565b600060019054906101000a900473ffffffffffffffffffffffffffffffffffffffff1681565b60003373ffffffffffffffffffffffffffffffffffffffff16600060019054906101000a900473ffffffffffffffffffffffffffffffffffffffff1673ffffffffffffffffffffffffffffffffffffffff1614610433576040517f08c379a0000000000000000000000000000000000000000000000000000000008152600401808060200182810382526025815260200180610b386025913960400191505060405180910390fd5b60206003541061048e576040517f08c379a000000000000000000000000000000000000000000000000000000000815260040180806020018281038252602b815260200180610b5d602b913960400191505060405180910390fd5b60008060019054906101000a900473ffffffffffffffffffffffffffffffffffffffff166040516104be906106f4565b808273ffffffffffffffffffffffffffffffffffffffff1673ffffffffffffffffffffffffffffffffffffffff168152602001915050604051809103906000f080158015610510573d6000803e3d6000fd5b5090508060046003546020811061052357fe5b0160006101000a81548173ffffffffffffffffffffffffffffffffffffffff021916908373ffffffffffffffffffffffffffffffffffffffff160217905550610578600160025461066c90919063ffffffff16565b5060016003600082825401925050819055507f175c9d61a8d047b095d72c1a314934d0c7149225befa2af159b3372dcc0a0059600254600354600460405180848152602001838152602001826020801561061d576020028201915b8160009054906101000a900473ffffffffffffffffffffffffffffffffffffffff1673ffffffffffffffffffffffffffffffffffffffff16815260200190600101908083116105d3575b5050935050505060405180910390a18091505090565b60025481565b6004816020811061064657fe5b016000915054906101000a900473ffffffffffffffffffffffffffffffffffffffff1681565b6000808284019050838110156106ea576040517f08c379a000000000000000000000000000000000000000000000000000000000815260040180806020018281038252601b8152602001807f536166654d6174683a206164646974696f6e206f766572666c6f77000000000081525060200191505060405180910390fd5b8091505092915050565b610436806107028339019056fe608060405234801561001057600080fd5b506040516104363803806104368339818101604052602081101561003357600080fd5b8101908080519060200190929190505050806000806101000a81548173ffffffffffffffffffffffffffffffffffffffff021916908373ffffffffffffffffffffffffffffffffffffffff16021790555060006001819055505061039a8061009c6000396000f3fe60806040526004361061003f5760003560e01c80636a688d1714610044578063839226171461009357806396b9d572146100fa578063a7b2325514610104575b600080fd5b34801561005057600080fd5b5061007d6004803603602081101561006757600080fd5b810190808035906020019092919050505061014a565b6040518082815260200191505060405180910390f35b6100f860048036036101808110156100aa57600080fd5b81019080806101800190600c806020026040519081016040528092919082600c60200280828437600081840152601f19601f8201169050808301925050505050509192919290505050610162565b005b610102610203565b005b61010c610205565b6040518082600c60200280838360005b8381101561013757808201518184015260208101905061011c565b5050505090500191505060405180910390f35b600281600c811061015757fe5b016000915090505481565b80600290600c6101739291906102dc565b507f504b87d066706ec2b4783bbd17c499c1dee069b91237189ac5319b5b1abbd3d9306002604051808373ffffffffffffffffffffffffffffffffffffffff1673ffffffffffffffffffffffffffffffffffffffff16815260200182600c80156101f2576020028201915b8154815260200190600101908083116101de575b50509250505060405180910390a150565b565b61020d61031c565b7fe9ba7b1b0b27c6ab2b810a6374133382246908ff3a8732905a29993c7f2c95ab306002604051808373ffffffffffffffffffffffffffffffffffffffff1673ffffffffffffffffffffffffffffffffffffffff16815260200182600c801561028b576020028201915b815481526020019060010190808311610277575b50509250505060405180910390a16002600c806020026040519081016040528092919082600c80156102d2576020028201915b8154815260200190600101908083116102be575b5050505050905090565b82600c810192821561030b579160200282015b8281111561030a5782518255916020019190600101906102ef565b5b509050610318919061033f565b5090565b604051806101800160405280600c90602082028038833980820191505090505090565b61036191905b8082111561035d576000816000905550600101610345565b5090565b9056fea2646970667358221220fc4051d049c627b8424591ac625ee881d3b611cae352efca25973f2d5774ae3064736f6c63430006000033746865207472616e73616374696f6e2063616c6c6572206d7573742062652050657069746f746865726520686173206265656e20616c7265616479203332206469736775697365732063726561746564a2646970667358221220cd50e2ddac60677065b1762b3f7bcde147b5483f2258449b32b22107642e04a264736f6c63430006000033",
  "source": "// SPDX-License-Identifier: MIT\n// version of Jan 17, 2021 - structure follows CodeTemplate.sol\npragma solidity >=0.4.22 <0.8.0;\n\n/**\n    @title  Pepito. Demo dApp for Machu Picchu. Also Final Project of\n    @author Vu Tien Khang\n    @notice Pepito is a Caribbian corsair. He can create up to 32 PepitoDisguise in this version\n    @notice Pepito's function is similar to ENS Registry.sol, PepitoDisguise is similar to ENS Resolver.sol\n    @dev    Pepito's Circuit Breaker stops creating disguises if Hernadez de La Banane discovers the trick :-)\n    @dev    The circuit breaker is called to halt everything in case of serious unsolved contract exploit\n    @dev    contract Pepito is a factory of disguises.\n    @dev    - the main interest of a factory is to maintain an array or mapping of addresses of child contracts\n    @dev    - specially useful for persons-in-need because their contract will be their virtual secretary\n    @dev        and will maintain their balance of tokens \n    @dev        and will execute the few orders sent via SMS by the persons-in-need\n    @dev Pepito contract only manages the array of addresses of disguise smart contracts\n    @dev PepitoDisguise contract actually manages the array the disguise options, the personal data\n\n    @dev    Remix-compiled successfully 2021-01-17\n*/\n\nimport \"./PepitoDisguise.sol\";\nimport \"../client/node_modules/@openzeppelin/contracts/math/SafeMath.sol\";\n//import \"./SafeMath.sol\";      // used to compile in Remix\n\ncontract Pepito {\n    using SafeMath for uint256;\n\n    bool public stopped;            /// @dev    the circuit breaker\n    address public owner;           /// @dev    account that deployed Pepito\n    uint256 public initialBalance;  /// @dev    initial balance of all disguises\n    uint256 public disguiseCount;   /// @dev    running number of disguises in array pepitoDisguiseAddresses\n    uint256 public disguiseCount1;  /// @dev    same but incremented without SafeMath\n    address[32] public disguiseAddresses;    /// @dev    array of addresses of contracts pepitoDisguise\n    /// @dev    array is used because disguises will be iterated and displayed\n    /// @dev    mapping may be used when disguises are transposed into people-in-need that won't be iterated\n    /// @dev    for the demo, we limit array size to 32; in real, disguises will be in IPFS database w/o number limit\n\n    event PepitoDisguiseCreated(uint256 disguiseCount, uint256 disguiseCount1, address[32] disguiseAddresses);\n    event PepitoStopped(bool stopped);\n\n    modifier isAdmin() {\n        require(owner == msg.sender);   /// @dev    the caller of the function must be Pepito\n        _;\n    }\n    modifier stopInEmergency() {        /// @dev    the caller of the breaker must be Pepito\n        if(!stopped) _;\n    }\n    modifier onlyInEmergency() {        /// @dev    the caller of the breaker must be Pepito\n        if(stopped) _;\n    }\n\n    constructor() public {\n        stopped = false;\n        owner = msg.sender;     /// @dev    the owner is the EOA that deployed Pepito\n        initialBalance = 10;    /// @dev    initial balance is 10 Pepito tokens\n        disguiseCount = 0;      /// @dev    number of disguises created, maintained with SafeMath\n        disguiseCount1 = 0;     /// @dev    currently used, unsafe arithmetic\n    }\n        \n    function createPepitoDisguise() public payable returns(PepitoDisguise) {\n        /// @notice deploy an instance of PepitoDisguise with properties transferred from caller\n        require (owner == msg.sender, \"the transaction caller must be Pepito\");\n        /// @dev    future improvement: require (initialBalance != uint256(0), \"initial balance of disguise cannot be zero\");\n        require (disguiseCount1 < 32, \"there has been already 32 disguises created\");\n        PepitoDisguise pepitoDisguise = new PepitoDisguise(owner/*, initialBalance*/);\n        /// @dev    disguise is a future virtual secretary of persons-in-need, so its contract address is useful\n        /// @dev    the disguise is instantiated here, will be filled by functions in pepitoDisguise()\n        disguiseAddresses[disguiseCount1] = address(pepitoDisguise);\n        disguiseCount.add(1);   ///@dev used by SafeMath, but not working well yet\n        disguiseCount1 += 1;\n        emit PepitoDisguiseCreated(disguiseCount, disguiseCount1, disguiseAddresses); // emit the complete array of addresses\n        return pepitoDisguise;  ///@dev verify if this return is useful somewhere\n    }\n\n    function toggleContractActive() public payable isAdmin {\n        /// @dev    Circuit breaker to stop the smart contract in desperate cases & restart it\n        /// @dev    In the future we can add an additional modifier that restricts stopping a contract to be\n        /// @dev    based on another action, such as a vote of users\n        stopped = !stopped;\n        emit PepitoStopped(stopped);\n    }\n    \n    function withdraw () onlyInEmergency public payable {\n        /// @dev    withdraw balances of all tokens when situation is desperate\n        /// @dev    change 'public' to 'external' to reduce gas if never called inside this contract\n        /// @dev    add some code to withdraw all tokens from all disguises if circuit breaker activated\n        /// @dev    and contract is hopelessly FOOBAR\n   }\n}\n",
  "sourcePath": "/Users/kvutien/Dropbox/MachuPicchu/Machu-Picchu/Pepito/contracts/Pepito.sol",
  "compiler": {
    "name": "solc",
    "version": "0.6.0+commit.26b70077.Emscripten.clang"
  },
  "schemaVersion": "3.2.5",
  "updatedAt": "2021-01-25T18:05:20.356Z",
  "networkType": "ethereum",
  "devdoc": {
    "methods": {}
  },
  "userdoc": {
    "methods": {}
  }
}