{
  "contractName": "Pepito",
  "abi": [
    {
      "inputs": [],
      "stateMutability": "nonpayable",
      "type": "constructor"
    },
    {
      "anonymous": false,
      "inputs": [
        {
          "indexed": false,
          "internalType": "uint256",
          "name": "disguiseCount",
          "type": "uint256"
        },
        {
          "indexed": false,
          "internalType": "uint256",
          "name": "disguiseCount1",
          "type": "uint256"
        },
        {
          "indexed": false,
          "internalType": "address[64]",
          "name": "disguiseAddresses",
          "type": "address[64]"
        }
      ],
      "name": "PepitoDisguiseCreated",
      "type": "event"
    },
    {
      "inputs": [
        {
          "internalType": "uint256",
          "name": "",
          "type": "uint256"
        }
      ],
      "name": "disguiseAddresses",
      "outputs": [
        {
          "internalType": "address",
          "name": "",
          "type": "address"
        }
      ],
      "stateMutability": "view",
      "type": "function",
      "constant": true
    },
    {
      "inputs": [],
      "name": "disguiseCount",
      "outputs": [
        {
          "internalType": "uint256",
          "name": "",
          "type": "uint256"
        }
      ],
      "stateMutability": "view",
      "type": "function",
      "constant": true
    },
    {
      "inputs": [],
      "name": "disguiseCount1",
      "outputs": [
        {
          "internalType": "uint256",
          "name": "",
          "type": "uint256"
        }
      ],
      "stateMutability": "view",
      "type": "function",
      "constant": true
    },
    {
      "inputs": [],
      "name": "initialBalance",
      "outputs": [
        {
          "internalType": "uint256",
          "name": "",
          "type": "uint256"
        }
      ],
      "stateMutability": "view",
      "type": "function",
      "constant": true
    },
    {
      "inputs": [],
      "name": "owner",
      "outputs": [
        {
          "internalType": "address",
          "name": "",
          "type": "address"
        }
      ],
      "stateMutability": "view",
      "type": "function",
      "constant": true
    },
    {
      "inputs": [],
      "name": "stopped",
      "outputs": [
        {
          "internalType": "bool",
          "name": "",
          "type": "bool"
        }
      ],
      "stateMutability": "view",
      "type": "function",
      "constant": true
    },
    {
      "inputs": [],
      "name": "registerDisguise",
      "outputs": [],
      "stateMutability": "payable",
      "type": "function",
      "payable": true
    },
    {
      "inputs": [],
      "name": "createPepitoDisguise",
      "outputs": [
        {
          "internalType": "contract PepitoDisguise",
          "name": "",
          "type": "address"
        }
      ],
      "stateMutability": "payable",
      "type": "function",
      "payable": true
    },
    {
      "inputs": [
        {
          "internalType": "uint256",
          "name": "i",
          "type": "uint256"
        }
      ],
      "name": "getPepitoDisguise",
      "outputs": [
        {
          "internalType": "address",
          "name": "",
          "type": "address"
        }
      ],
      "stateMutability": "view",
      "type": "function",
      "constant": true
    },
    {
      "inputs": [],
      "name": "toggleContractActive",
      "outputs": [],
      "stateMutability": "nonpayable",
      "type": "function"
    },
    {
      "inputs": [],
      "name": "withdraw",
      "outputs": [],
      "stateMutability": "payable",
      "type": "function",
      "payable": true
    }
  ],
  "bytecode": "0x608060405234801561001057600080fd5b5060008060006101000a81548160ff02191690831515021790555033600060016101000a81548173ffffffffffffffffffffffffffffffffffffffff021916908373ffffffffffffffffffffffffffffffffffffffff160217905550600a60018190555060006002819055506000600381905550611120806100936000396000f3fe60806040526004361061009c5760003560e01c8063797ffef511610064578063797ffef5146101475780638da5cb5b146101c25780639a19faec14610219578063b5ac3faa14610223578063d86c95981461026d578063dd9ddfbe146102985761009c565b80631385d24c146100a157806318369a2a146100b85780633ccfd60b146100e35780635d3850e4146100ed57806375f12b2114610118575b600080fd5b3480156100ad57600080fd5b506100b6610313565b005b3480156100c457600080fd5b506100cd610397565b6040518082815260200191505060405180910390f35b6100eb61039d565b005b3480156100f957600080fd5b506101026103ac565b6040518082815260200191505060405180910390f35b34801561012457600080fd5b5061012d6103b2565b604051808215151515815260200191505060405180910390f35b34801561015357600080fd5b506101806004803603602081101561016a57600080fd5b81019080803590602001909291905050506103c4565b604051808273ffffffffffffffffffffffffffffffffffffffff1673ffffffffffffffffffffffffffffffffffffffff16815260200191505060405180910390f35b3480156101ce57600080fd5b506101d7610455565b604051808273ffffffffffffffffffffffffffffffffffffffff1673ffffffffffffffffffffffffffffffffffffffff16815260200191505060405180910390f35b61022161047b565b005b61022b61049a565b604051808273ffffffffffffffffffffffffffffffffffffffff1673ffffffffffffffffffffffffffffffffffffffff16815260200191505060405180910390f35b34801561027957600080fd5b50610282610742565b6040518082815260200191505060405180910390f35b3480156102a457600080fd5b506102d1600480360360208110156102bb57600080fd5b8101908080359060200190929190505050610748565b604051808273ffffffffffffffffffffffffffffffffffffffff1673ffffffffffffffffffffffffffffffffffffffff16815260200191505060405180910390f35b3373ffffffffffffffffffffffffffffffffffffffff16600060019054906101000a900473ffffffffffffffffffffffffffffffffffffffff1673ffffffffffffffffffffffffffffffffffffffff161461036d57600080fd5b6000809054906101000a900460ff16156000806101000a81548160ff021916908315150217905550565b60015481565b6000809054906101000a905050565b60035481565b6000809054906101000a900460ff1681565b60006040821061041f576040517f08c379a00000000000000000000000000000000000000000000000000000000081526004018080602001828103825260238152602001806110c86023913960400191505060405180910390fd5b6004826040811061042c57fe5b0160009054906101000a900473ffffffffffffffffffffffffffffffffffffffff169050919050565b600060019054906101000a900473ffffffffffffffffffffffffffffffffffffffff1681565b6000809054906101000a900460ff166104985761049661049a565b505b565b60003373ffffffffffffffffffffffffffffffffffffffff16600060019054906101000a900473ffffffffffffffffffffffffffffffffffffffff1673ffffffffffffffffffffffffffffffffffffffff1614610542576040517f08c379a00000000000000000000000000000000000000000000000000000000081526004018080602001828103825260258152602001806110786025913960400191505060405180910390fd5b60406003541061059d576040517f08c379a000000000000000000000000000000000000000000000000000000000815260040180806020018281038252602b81526020018061109d602b913960400191505060405180910390fd5b60008060019054906101000a900473ffffffffffffffffffffffffffffffffffffffff166040516105cd90610803565b808273ffffffffffffffffffffffffffffffffffffffff1673ffffffffffffffffffffffffffffffffffffffff168152602001915050604051809103906000f08015801561061f573d6000803e3d6000fd5b5090508060046003546040811061063257fe5b0160006101000a81548173ffffffffffffffffffffffffffffffffffffffff021916908373ffffffffffffffffffffffffffffffffffffffff160217905550610687600160025461077b90919063ffffffff16565b5060016003600082825401925050819055507f443418cff9ddcfefe56e22c6f2ad6b7ae5b1e9848962978d3fc5f0cb53be9740600254600354600460405180848152602001838152602001826040801561072c576020028201915b8160009054906101000a900473ffffffffffffffffffffffffffffffffffffffff1673ffffffffffffffffffffffffffffffffffffffff16815260200190600101908083116106e2575b5050935050505060405180910390a18091505090565b60025481565b6004816040811061075557fe5b016000915054906101000a900473ffffffffffffffffffffffffffffffffffffffff1681565b6000808284019050838110156107f9576040517f08c379a000000000000000000000000000000000000000000000000000000000815260040180806020018281038252601b8152602001807f536166654d6174683a206164646974696f6e206f766572666c6f77000000000081525060200191505060405180910390fd5b8091505092915050565b610867806108118339019056fe608060405234801561001057600080fd5b506040516108673803806108678339818101604052602081101561003357600080fd5b8101908080519060200190929190505050806000806101000a81548173ffffffffffffffffffffffffffffffffffffffff021916908373ffffffffffffffffffffffffffffffffffffffff1602179055506000600181905550506107cb8061009c6000396000f3fe6080604052600436106100e85760003560e01c80638fbc4b1a1161008a578063c34db49511610059578063c34db49514610308578063d2d1e0f314610346578063e9145c6c14610384578063ef82bad6146103c2576100e8565b80638fbc4b1a1461026b5780639478e68f146102a957806396b9d572146102e7578063a7b23255146102f1576100e8565b8063385f5dfe116100c6578063385f5dfe146101a757806338713767146101e557806344424a31146101ef578063825ad1c21461022d576100e8565b80631be8f09d146100ed5780631e1c3b6b1461012b57806328dfd55714610169575b600080fd5b3480156100f957600080fd5b506101296004803603602081101561011057600080fd5b81019080803560ff1690602001909291905050506104e2565b005b34801561013757600080fd5b506101676004803603602081101561014e57600080fd5b81019080803560ff16906020019092919050505061050b565b005b34801561017557600080fd5b506101a56004803603602081101561018c57600080fd5b81019080803560ff169060200190929190505050610534565b005b3480156101b357600080fd5b506101e3600480360360208110156101ca57600080fd5b81019080803560ff16906020019092919050505061055d565b005b6101ed610586565b005b3480156101fb57600080fd5b5061022b6004803603602081101561021257600080fd5b81019080803560ff169060200190929190505050610588565b005b34801561023957600080fd5b506102696004803603602081101561025057600080fd5b81019080803560ff1690602001909291905050506105b1565b005b34801561027757600080fd5b506102a76004803603602081101561028e57600080fd5b81019080803560ff1690602001909291905050506105da565b005b3480156102b557600080fd5b506102e5600480360360208110156102cc57600080fd5b81019080803560ff169060200190929190505050610603565b005b6102ef61062c565b005b3480156102fd57600080fd5b5061030661062e565b005b34801561031457600080fd5b506103446004803603602081101561032b57600080fd5b81019080803560ff169060200190929190505050610630565b005b34801561035257600080fd5b506103826004803603602081101561036957600080fd5b81019080803560ff169060200190929190505050610659565b005b34801561039057600080fd5b506103c0600480360360208110156103a757600080fd5b81019080803560ff169060200190929190505050610682565b005b3480156103ce57600080fd5b506103d76106ab565b604051808d60238111156103e757fe5b60ff1681526020018c600e8111156103fb57fe5b60ff1681526020018b600681111561040f57fe5b60ff1681526020018a600981111561042357fe5b60ff16815260200189600581111561043757fe5b60ff16815260200188600681111561044b57fe5b60ff16815260200187600981111561045f57fe5b60ff16815260200186600e81111561047357fe5b60ff16815260200185600b81111561048757fe5b60ff16815260200184600c81111561049b57fe5b60ff16815260200183600b8111156104af57fe5b60ff1681526020018260068111156104c357fe5b60ff1681526020019c5050505050505050505050505060405180910390f35b806002600001600a6101000a81548160ff0219169083600b81111561050357fe5b021790555050565b806002600001600b6101000a81548160ff0219169083600681111561052c57fe5b021790555050565b80600260000160086101000a81548160ff0219169083600b81111561055557fe5b021790555050565b80600260000160046101000a81548160ff0219169083600581111561057e57fe5b021790555050565b565b80600260000160036101000a81548160ff021916908360098111156105a957fe5b021790555050565b80600260000160006101000a81548160ff021916908360238111156105d257fe5b021790555050565b80600260000160096101000a81548160ff0219169083600c8111156105fb57fe5b021790555050565b80600260000160076101000a81548160ff0219169083600e81111561062457fe5b021790555050565b565b565b80600260000160066101000a81548160ff0219169083600981111561065157fe5b021790555050565b80600260000160016101000a81548160ff0219169083600e81111561067a57fe5b021790555050565b80600260000160026101000a81548160ff021916908360068111156106a357fe5b021790555050565b60028060000160009054906101000a900460ff16908060000160019054906101000a900460ff16908060000160029054906101000a900460ff16908060000160039054906101000a900460ff16908060000160049054906101000a900460ff16908060000160059054906101000a900460ff16908060000160069054906101000a900460ff16908060000160079054906101000a900460ff16908060000160089054906101000a900460ff16908060000160099054906101000a900460ff169080600001600a9054906101000a900460ff169080600001600b9054906101000a900460ff1690508c56fea26469706673582212204e496643e093c91785cd2fdc2959b992ab6345f5cf203912e4b510b1d1b8320d64736f6c63430006000033746865207472616e73616374696f6e2063616c6c6572206d7573742062652050657069746f746865726520686173206265656e20616c726561647920363420646973677569736573206372656174656463616e6e6f74206578697374206d6f7265207468616e20363420646973677569736573a26469706673582212202c777a6d9edb7b9fbbe491fa7d010e630841e0ded48f6ee646fe721fbdec919c64736f6c63430006000033",
  "source": "// SPDX-License-Identifier: MIT\n// version of Jan 17, 2021 - structure follows CodeTemplate.sol\npragma solidity >=0.4.22 <0.8.0;\n\n/**\n    @title  Pepito. Demo dApp for Machu Picchu. Also Final Project of\n    @author Vu Tien Khang\n    @notice Pepito is a Caribbian corsair. He can create up to 64 PepitoDisguise in this version\n    @notice Pepito's function is similar to ENS Registry.sol, PepitoDisguise is similar to ENS Resolver.sol\n    @dev    Pepito's Circuit Breaker stops creating disguises if Hernadez de La Banane discovers the trick :-)\n    @dev    The circuit breaker is called to halt everything in case of serious unsolved contract exploit\n    @dev    contract Pepito is a factory of disguises.\n    @dev    - the main interest of a factory is to maintain an array or mapping of addresses of child contracts\n    @dev    - specially useful for persons-in-need because their contract will be their virtual secretary\n    @dev        and will maintain their balance of tokens \n    @dev        and will execute the few orders sent via SMS by the persons-in-need\n    @dev Pepito contract only manages the array of addresses of disguise smart contracts\n    @dev PepitoDisguise contract actually manages the array the disguise options, the personal data\n\n    @dev    Remix-compiled successfully 2021-01-17\n*/\n\nimport \"./PepitoDisguise.sol\";\nimport \"../client/node_modules/@openzeppelin/contracts/math/SafeMath.sol\";\n//import \"./SafeMath.sol\";      // used to compile in Remix\n\ncontract Pepito {\n    using SafeMath for uint256;\n\n    bool public stopped;            /// @dev    the circuit breaker\n    address public owner;           /// @dev    account that deployed Pepito\n    uint256 public initialBalance;  /// @dev    initial balance of all disguises\n    uint256 public disguiseCount;   /// @dev    running number of disguises in array pepitoDisguiseAddresses\n    uint256 public disguiseCount1;  /// @dev    same but incremented without SafeMath\n    address[64] public disguiseAddresses;    /// @dev    array of addresses of contracts pepitoDisguise\n    /// @dev    array is used because disguises will be iterated and displayed\n    /// @dev    mapping may be used when disguises are transposed into people-in-need that won't be iterated\n    /// @dev    for the demo, we limit array size to 64; in real, disguises will be in IPFS database w/o number limit\n\n    event PepitoDisguiseCreated(uint256 disguiseCount, uint256 disguiseCount1, address[64] disguiseAddresses);\n    \n    modifier isAdmin() {\n        require(owner == msg.sender);   /// @dev    the caller of the function must be Pepito\n        _;\n    }\n    modifier stopInEmergency() {        /// @dev    the caller of the breaker must be Pepito\n        if(!stopped) _;\n    }\n    modifier onlyInEmergency() {        /// @dev    the caller of the breaker must be Pepito\n        if(stopped) _;\n    }\n\n    constructor() public {\n        stopped = false;\n        owner = msg.sender;     /// @dev    the owner is the EOA that deployed Pepito\n        initialBalance = 10;    /// @dev    initial balance is 10 Pepito tokens\n        disguiseCount = 0;      /// @dev    number of disguises created, maintained with SafeMath\n        disguiseCount1 = 0;     /// @dev    currently used, unsafe arithmetic\n    }\n    \n    function registerDisguise() public payable stopInEmergency {\n        /// @notice create a disguise in circuit-breaker protected mode and (future) record it in IPFS\n        /// @notice stop all creation of new disguise if circuit breaker activated\n        /// @dev    TODO: inputs = PepitoDisguise pepitoDisguise, uint256[] disguise2store\n        /// @dev    TODO: to be called by DisguiseStore.js instead of today createPepitoDisguise()\n        /// @dev        await pepitoInstance.methods.registerDisguise()\n        createPepitoDisguise();\n    }\n    \n    function createPepitoDisguise() public payable returns(PepitoDisguise) {\n        /// @notice deploy an instance of PepitoDisguise with properties transferred from caller\n        require (owner == msg.sender, \"the transaction caller must be Pepito\");\n        /// @dev    future improvement: require (initialBalance != uint256(0), \"initial balance of disguise cannot be zero\");\n        require (disguiseCount1 < 64, \"there has been already 64 disguises created\");\n        PepitoDisguise pepitoDisguise = new PepitoDisguise(owner/*, initialBalance*/);\n        /// @dev    disguise is a future virtual secretary of persons-in-need, so its contract address is useful\n        /// @dev    the disguise is instantiated here, will be filled by functions in pepitoDisguise()\n        disguiseAddresses[disguiseCount1] = address(pepitoDisguise);\n        disguiseCount.add(1);   ///@dev used by SafeMath, but not working well yet\n        disguiseCount1 += 1;\n        emit PepitoDisguiseCreated(disguiseCount, disguiseCount1, disguiseAddresses); // emit the complete array of addresses\n        // --> emit PepitoDisguiseCreated(disguiseCount, disguiseCount1, address(pepitoDisguise));\n        return pepitoDisguise;  ///@dev verify if this return is useful somewhere\n    }\n    \n    function getPepitoDisguise(uint i) external view returns(address) {\n        /// @dev    this function will be called from a JavaScript loop\n        /// @dev    i is loop index, rank in the array of disguises\n        /// @return one instance of pepitoDisguiseAddress, function to retrieve its data is exposed in pepitoDisguide\n        require (i < 64, \"cannot exist more than 64 disguises\");\n        return disguiseAddresses[i];\n    }\n    \n        function toggleContractActive() public isAdmin {\n        /// @dev    Circuit breaker to stop the smart contract in desperate cases & restart it\n        /// @dev    In the future we can add an additional modifier that restricts stopping a contract to be\n        /// @dev    based on another action, such as a vote of users\n        stopped = !stopped;\n    }\n    \n    function withdraw () onlyInEmergency public payable {\n        /// @dev    withdraw balances of all tokens when situation is desperate\n        /// @dev    change 'public' to 'external' to reduce gas if never called inside this contract\n        /// @dev    add some code to withdraw all tokens from all disguises if circuit breaker activated\n        /// @dev    and contract is hopelessly FOOBAR\n   }\n}\n",
  "sourcePath": "/Users/kvutien/Dropbox/MachuPicchu/Machu-Picchu/Pepito/contracts/Pepito.sol",
  "compiler": {
    "name": "solc",
    "version": "0.6.0+commit.26b70077.Emscripten.clang"
  },
  "schemaVersion": "3.2.5",
  "updatedAt": "2021-01-17T11:37:28.178Z",
  "networkType": "ethereum",
  "devdoc": {
    "methods": {}
  },
  "userdoc": {
    "methods": {}
  }
}